{
  "contractName": "ShopContract",
  "abi": [
    {
      "inputs": [
        {
          "internalType": "contract ZNToken",
          "name": "_znToken",
          "type": "address"
        }
      ],
      "payable": false,
      "stateMutability": "nonpayable",
      "type": "constructor"
    },
    {
      "constant": true,
      "inputs": [
        {
          "internalType": "address",
          "name": "",
          "type": "address"
        },
        {
          "internalType": "uint256",
          "name": "",
          "type": "uint256"
        }
      ],
      "name": "carts",
      "outputs": [
        {
          "internalType": "string",
          "name": "name",
          "type": "string"
        },
        {
          "internalType": "uint256",
          "name": "price",
          "type": "uint256"
        }
      ],
      "payable": false,
      "stateMutability": "view",
      "type": "function"
    },
    {
      "constant": true,
      "inputs": [],
      "name": "owner",
      "outputs": [
        {
          "internalType": "address",
          "name": "",
          "type": "address"
        }
      ],
      "payable": false,
      "stateMutability": "view",
      "type": "function"
    },
    {
      "constant": true,
      "inputs": [
        {
          "internalType": "string",
          "name": "",
          "type": "string"
        }
      ],
      "name": "products",
      "outputs": [
        {
          "internalType": "uint256",
          "name": "",
          "type": "uint256"
        }
      ],
      "payable": false,
      "stateMutability": "view",
      "type": "function"
    },
    {
      "constant": true,
      "inputs": [
        {
          "internalType": "address",
          "name": "",
          "type": "address"
        },
        {
          "internalType": "uint256",
          "name": "",
          "type": "uint256"
        }
      ],
      "name": "purchased",
      "outputs": [
        {
          "internalType": "string",
          "name": "",
          "type": "string"
        }
      ],
      "payable": false,
      "stateMutability": "view",
      "type": "function"
    },
    {
      "constant": true,
      "inputs": [
        {
          "internalType": "address",
          "name": "",
          "type": "address"
        }
      ],
      "name": "users",
      "outputs": [
        {
          "internalType": "string",
          "name": "nickname",
          "type": "string"
        },
        {
          "internalType": "address",
          "name": "wallet",
          "type": "address"
        },
        {
          "internalType": "uint256",
          "name": "balance",
          "type": "uint256"
        },
        {
          "internalType": "string",
          "name": "role",
          "type": "string"
        }
      ],
      "payable": false,
      "stateMutability": "view",
      "type": "function"
    },
    {
      "constant": true,
      "inputs": [],
      "name": "znToken",
      "outputs": [
        {
          "internalType": "contract ZNToken",
          "name": "",
          "type": "address"
        }
      ],
      "payable": false,
      "stateMutability": "view",
      "type": "function"
    },
    {
      "constant": false,
      "inputs": [
        {
          "internalType": "string",
          "name": "_nickname",
          "type": "string"
        },
        {
          "internalType": "string",
          "name": "_role",
          "type": "string"
        }
      ],
      "name": "register",
      "outputs": [],
      "payable": false,
      "stateMutability": "nonpayable",
      "type": "function"
    },
    {
      "constant": false,
      "inputs": [
        {
          "internalType": "string",
          "name": "_name",
          "type": "string"
        },
        {
          "internalType": "uint256",
          "name": "_price",
          "type": "uint256"
        }
      ],
      "name": "createProduct",
      "outputs": [
        {
          "internalType": "uint256",
          "name": "",
          "type": "uint256"
        }
      ],
      "payable": false,
      "stateMutability": "nonpayable",
      "type": "function"
    },
    {
      "constant": false,
      "inputs": [
        {
          "internalType": "uint256",
          "name": "amount",
          "type": "uint256"
        }
      ],
      "name": "generatePromocode",
      "outputs": [
        {
          "internalType": "bytes32",
          "name": "",
          "type": "bytes32"
        }
      ],
      "payable": false,
      "stateMutability": "nonpayable",
      "type": "function"
    },
    {
      "constant": false,
      "inputs": [
        {
          "internalType": "string",
          "name": "_name",
          "type": "string"
        },
        {
          "internalType": "bytes32",
          "name": "_promocode",
          "type": "bytes32"
        }
      ],
      "name": "addProductToCart",
      "outputs": [],
      "payable": false,
      "stateMutability": "nonpayable",
      "type": "function"
    },
    {
      "constant": false,
      "inputs": [],
      "name": "buyProducts",
      "outputs": [],
      "payable": false,
      "stateMutability": "nonpayable",
      "type": "function"
    },
    {
      "constant": false,
      "inputs": [
        {
          "internalType": "address",
          "name": "_wallet",
          "type": "address"
        }
      ],
      "name": "summCart",
      "outputs": [
        {
          "internalType": "uint256",
          "name": "",
          "type": "uint256"
        }
      ],
      "payable": false,
      "stateMutability": "nonpayable",
      "type": "function"
    },
    {
      "constant": false,
      "inputs": [],
      "name": "balanceOf",
      "outputs": [
        {
          "internalType": "uint256",
          "name": "",
          "type": "uint256"
        }
      ],
      "payable": false,
      "stateMutability": "nonpayable",
      "type": "function"
    }
  ],
  "bytecode": "0x60806040523480156200001157600080fd5b5060405162001d3938038062001d39833981810160405260208110156200003757600080fd5b8101908080519060200190929190505050336000806101000a81548173ffffffffffffffffffffffffffffffffffffffff021916908373ffffffffffffffffffffffffffffffffffffffff16021790555080600160006101000a81548173ffffffffffffffffffffffffffffffffffffffff021916908373ffffffffffffffffffffffffffffffffffffffff16021790555060606040518060a001604052806040518060400160405280600581526020017f61646d696e00000000000000000000000000000000000000000000000000000081525081526020013373ffffffffffffffffffffffffffffffffffffffff168152602001620493e081526020018281526020016040518060400160405280600581526020017f61646d696e000000000000000000000000000000000000000000000000000000815250815250600260003373ffffffffffffffffffffffffffffffffffffffff1673ffffffffffffffffffffffffffffffffffffffff1681526020019081526020016000206000820151816000019080519060200190620001d29291906200026d565b5060208201518160010160006101000a81548173ffffffffffffffffffffffffffffffffffffffff021916908373ffffffffffffffffffffffffffffffffffffffff16021790555060408201518160020155606082015181600301908051906020019062000242929190620002f4565b506080820151816004019080519060200190620002619291906200026d565b50905050505062000400565b828054600181600116156101000203166002900490600052602060002090601f016020900481019282601f10620002b057805160ff1916838001178555620002e1565b82800160010185558215620002e1579182015b82811115620002e0578251825591602001919060010190620002c3565b5b509050620002f091906200035b565b5090565b82805482825590600052602060002090810192821562000348579160200282015b8281111562000347578251829080519060200190620003369291906200026d565b509160200191906001019062000315565b5b50905062000357919062000383565b5090565b6200038091905b808211156200037c57600081600090555060010162000362565b5090565b90565b620003b191905b80821115620003ad5760008181620003a39190620003b4565b506001016200038a565b5090565b90565b50805460018160011615610100020316600290046000825580601f10620003dc5750620003fd565b601f016020900490600052602060002090810190620003fc91906200035b565b5b50565b61192980620004106000396000f3fe608060405234801561001057600080fd5b50600436106100cf5760003560e01c80638da5cb5b1161008c578063e9300c6c11610066578063e9300c6c146106e1578063eaef9af1146107ba578063ebbbdcaf1461087f578063edf81d0a146108d7576100cf565b80638da5cb5b1461046d578063a87430ba146104b7578063e597ef121461061a576100cf565b80630186a423146100d45780633d6d8e27146101a35780633ffbd47f146101ed57806364d2d5f41461033f578063722713f7146103815780638b1a2d521461039f575b600080fd5b61018d600480360360208110156100ea57600080fd5b810190808035906020019064010000000081111561010757600080fd5b82018360208201111561011957600080fd5b8035906020019184600183028401116401000000008311171561013b57600080fd5b91908080601f016020809104026020016040519081016040528093929190818152602001838380828437600081840152601f19601f8201169050808301925050505050505091929192905050506108e1565b6040518082815260200191505060405180910390f35b6101ab61090f565b604051808273ffffffffffffffffffffffffffffffffffffffff1673ffffffffffffffffffffffffffffffffffffffff16815260200191505060405180910390f35b61033d6004803603604081101561020357600080fd5b810190808035906020019064010000000081111561022057600080fd5b82018360208201111561023257600080fd5b8035906020019184600183028401116401000000008311171561025457600080fd5b91908080601f016020809104026020016040519081016040528093929190818152602001838380828437600081840152601f19601f820116905080830192505050505050509192919290803590602001906401000000008111156102b757600080fd5b8201836020820111156102c957600080fd5b803590602001918460018302840111640100000000831117156102eb57600080fd5b91908080601f016020809104026020016040519081016040528093929190818152602001838380828437600081840152601f19601f820116905080830192505050505050509192919290505050610935565b005b61036b6004803603602081101561035557600080fd5b8101908080359060200190929190505050610a64565b6040518082815260200191505060405180910390f35b610389610be5565b6040518082815260200191505060405180910390f35b6103eb600480360360408110156103b557600080fd5b81019080803573ffffffffffffffffffffffffffffffffffffffff16906020019092919080359060200190929190505050610c2f565b6040518080602001838152602001828103825284818151815260200191508051906020019080838360005b83811015610431578082015181840152602081019050610416565b50505050905090810190601f16801561045e5780820380516001836020036101000a031916815260200191505b50935050505060405180910390f35b610475610d05565b604051808273ffffffffffffffffffffffffffffffffffffffff1673ffffffffffffffffffffffffffffffffffffffff16815260200191505060405180910390f35b6104f9600480360360208110156104cd57600080fd5b81019080803573ffffffffffffffffffffffffffffffffffffffff169060200190929190505050610d2a565b60405180806020018573ffffffffffffffffffffffffffffffffffffffff1673ffffffffffffffffffffffffffffffffffffffff16815260200184815260200180602001838103835287818151815260200191508051906020019080838360005b8381101561057557808201518184015260208101905061055a565b50505050905090810190601f1680156105a25780820380516001836020036101000a031916815260200191505b50838103825284818151815260200191508051906020019080838360005b838110156105db5780820151818401526020810190506105c0565b50505050905090810190601f1680156106085780820380516001836020036101000a031916815260200191505b50965050505050505060405180910390f35b6106666004803603604081101561063057600080fd5b81019080803573ffffffffffffffffffffffffffffffffffffffff16906020019092919080359060200190929190505050610eaa565b6040518080602001828103825283818151815260200191508051906020019080838360005b838110156106a657808201518184015260208101905061068b565b50505050905090810190601f1680156106d35780820380516001836020036101000a031916815260200191505b509250505060405180910390f35b6107a4600480360360408110156106f757600080fd5b810190808035906020019064010000000081111561071457600080fd5b82018360208201111561072657600080fd5b8035906020019184600183028401116401000000008311171561074857600080fd5b91908080601f016020809104026020016040519081016040528093929190818152602001838380828437600081840152601f19601f82011690508083019250505050505050919291929080359060200190929190505050610f70565b6040518082815260200191505060405180910390f35b61087d600480360360408110156107d057600080fd5b81019080803590602001906401000000008111156107ed57600080fd5b8201836020820111156107ff57600080fd5b8035906020019184600183028401116401000000008311171561082157600080fd5b91908080601f016020809104026020016040519081016040528093929190818152602001838380828437600081840152601f19601f82011690508083019250505050505050919291929080359060200190929190505050611168565b005b6108c16004803603602081101561089557600080fd5b81019080803573ffffffffffffffffffffffffffffffffffffffff1690602001909291905050506112ab565b6040518082815260200191505060405180910390f35b6108df61143a565b005b6004818051602081018201805184825260208301602085012081835280955050505050506000915090505481565b600160009054906101000a900473ffffffffffffffffffffffffffffffffffffffff1681565b60606040518060a001604052808481526020013373ffffffffffffffffffffffffffffffffffffffff1681526020016000815260200182815260200183815250600260003373ffffffffffffffffffffffffffffffffffffffff1673ffffffffffffffffffffffffffffffffffffffff16815260200190815260200160002060008201518160000190805190602001906109d09291906116e1565b5060208201518160010160006101000a81548173ffffffffffffffffffffffffffffffffffffffff021916908373ffffffffffffffffffffffffffffffffffffffff160217905550604082015181600201556060820151816003019080519060200190610a3e929190611761565b506080820151816004019080519060200190610a5b9291906116e1565b50905050505050565b6000600260003373ffffffffffffffffffffffffffffffffffffffff1673ffffffffffffffffffffffffffffffffffffffff1681526020019081526020016000206004016040516020018082805460018160011615610100020316600290048015610b065780601f10610ae4576101008083540402835291820191610b06565b820191906000526020600020905b815481529060010190602001808311610af2575b50509150506040516020818303038152906040528051906020012060405160200180807f61646d696e00000000000000000000000000000000000000000000000000000081525060050190506040516020818303038152906040528051906020012014610b7257600080fd5b6103e8821115610b8157600080fd5b60003373ffffffffffffffffffffffffffffffffffffffff1683016040516020018082815260200191505060405160208183030381529060405280519060200120905082600560008381526020019081526020016000208190555080915050919050565b6000600260003373ffffffffffffffffffffffffffffffffffffffff1673ffffffffffffffffffffffffffffffffffffffff16815260200190815260200160002060020154905090565b60036020528160005260406000208181548110610c4857fe5b906000526020600020906002020160009150915050806000018054600181600116156101000203166002900480601f016020809104026020016040519081016040528092919081815260200182805460018160011615610100020316600290048015610cf55780601f10610cca57610100808354040283529160200191610cf5565b820191906000526020600020905b815481529060010190602001808311610cd857829003601f168201915b5050505050908060010154905082565b6000809054906101000a900473ffffffffffffffffffffffffffffffffffffffff1681565b6002602052806000526040600020600091509050806000018054600181600116156101000203166002900480601f016020809104026020016040519081016040528092919081815260200182805460018160011615610100020316600290048015610dd65780601f10610dab57610100808354040283529160200191610dd6565b820191906000526020600020905b815481529060010190602001808311610db957829003601f168201915b5050505050908060010160009054906101000a900473ffffffffffffffffffffffffffffffffffffffff1690806002015490806004018054600181600116156101000203166002900480601f016020809104026020016040519081016040528092919081815260200182805460018160011615610100020316600290048015610ea05780601f10610e7557610100808354040283529160200191610ea0565b820191906000526020600020905b815481529060010190602001808311610e8357829003601f168201915b5050505050905084565b60066020528160005260406000208181548110610ec357fe5b90600052602060002001600091509150508054600181600116156101000203166002900480601f016020809104026020016040519081016040528092919081815260200182805460018160011615610100020316600290048015610f685780601f10610f3d57610100808354040283529160200191610f68565b820191906000526020600020905b815481529060010190602001808311610f4b57829003601f168201915b505050505081565b6000600260003373ffffffffffffffffffffffffffffffffffffffff1673ffffffffffffffffffffffffffffffffffffffff16815260200190815260200160002060040160405160200180828054600181600116156101000203166002900480156110125780601f10610ff0576101008083540402835291820191611012565b820191906000526020600020905b815481529060010190602001808311610ffe575b50509150506040516020818303038152906040528051906020012060405160200180807f61646d696e0000000000000000000000000000000000000000000000000000008152506005019050604051602081830303815290604052805190602001201461107e57600080fd5b60006004846040518082805190602001908083835b602083106110b65780518252602082019150602081019050602083039250611093565b6001836020036101000a038019825116818451168082178552505050505050905001915050908152602001604051809103902054146110f457600080fd5b816004846040518082805190602001908083835b6020831061112b5780518252602082019150602081019050602083039250611108565b6001836020036101000a03801982511681845116808217855250505050505090500191505090815260200160405180910390208190555092915050565b60006005600083815260200190815260200160002054905060006004846040518082805190602001908083835b602083106111b85780518252602082019150602081019050602083039250611195565b6001836020036101000a03801982511681845116808217855250505050505090500191505090815260200160405180910390205490506111f66117c1565b60405180604001604052808681526020018484038152509050600360003373ffffffffffffffffffffffffffffffffffffffff1673ffffffffffffffffffffffffffffffffffffffff168152602001908152602001600020819080600181540180825580915050906001820390600052602060002090600202016000909192909190915060008201518160000190805190602001906112969291906116e1565b50602082015181600101555050505050505050565b600080600090506060600360008573ffffffffffffffffffffffffffffffffffffffff1673ffffffffffffffffffffffffffffffffffffffff168152602001908152602001600020805480602002602001604051908101604052809291908181526020016000905b828210156113f15783829060005260206000209060020201604051806040016040529081600082018054600181600116156101000203166002900480601f0160208091040260200160405190810160405280929190818152602001828054600181600116156101000203166002900480156113cf5780601f106113a4576101008083540402835291602001916113cf565b820191906000526020600020905b8154815290600101906020018083116113b257829003601f168201915b5050505050815260200160018201548152505081526020019060010190611313565b50505050905060008090505b815181101561142f5781818151811061141257fe5b6020026020010151602001518301925080806001019150506113fd565b508192505050919050565b611443336112ab565b600260003373ffffffffffffffffffffffffffffffffffffffff1673ffffffffffffffffffffffffffffffffffffffff16815260200190815260200160002060020154101561149157600080fd5b61149a336112ab565b600260003373ffffffffffffffffffffffffffffffffffffffff1673ffffffffffffffffffffffffffffffffffffffff168152602001908152602001600020600201600082825403925050819055506060600360003373ffffffffffffffffffffffffffffffffffffffff1673ffffffffffffffffffffffffffffffffffffffff168152602001908152602001600020805480602002602001604051908101604052809291908181526020016000905b828210156116285783829060005260206000209060020201604051806040016040529081600082018054600181600116156101000203166002900480601f0160208091040260200160405190810160405280929190818152602001828054600181600116156101000203166002900480156116065780601f106115db57610100808354040283529160200191611606565b820191906000526020600020905b8154815290600101906020018083116115e957829003601f168201915b505050505081526020016001820154815250508152602001906001019061154a565b50505050905060008090505b81518110156116dd57600660003373ffffffffffffffffffffffffffffffffffffffff1673ffffffffffffffffffffffffffffffffffffffff16815260200190815260200160002082828151811061168857fe5b60200260200101516000015190806001815401808255809150509060018203906000526020600020016000909192909190915090805190602001906116ce9291906117db565b50508080600101915050611634565b5050565b828054600181600116156101000203166002900490600052602060002090601f016020900481019282601f1061172257805160ff1916838001178555611750565b82800160010185558215611750579182015b8281111561174f578251825591602001919060010190611734565b5b50905061175d919061185b565b5090565b8280548282559060005260206000209081019282156117b0579160200282015b828111156117af57825182908051906020019061179f9291906116e1565b5091602001919060010190611781565b5b5090506117bd9190611880565b5090565b604051806040016040528060608152602001600081525090565b828054600181600116156101000203166002900490600052602060002090601f016020900481019282601f1061181c57805160ff191683800117855561184a565b8280016001018555821561184a579182015b8281111561184957825182559160200191906001019061182e565b5b509050611857919061185b565b5090565b61187d91905b80821115611879576000816000905550600101611861565b5090565b90565b6118a991905b808211156118a5576000818161189c91906118ac565b50600101611886565b5090565b90565b50805460018160011615610100020316600290046000825580601f106118d257506118f1565b601f0160209004906000526020600020908101906118f0919061185b565b5b5056fea265627a7a7231582077bc25afd7759226198e583d50264a65023d6fe982dc50f5b222c20a925a514a64736f6c63430005100032",
  "source": "pragma solidity ^0.5.0;\n//pragma experimental ABIEncoderV2;\nimport './ZNToken.sol';\n\ncontract ShopContract {\n\n    address public owner;\n    ZNToken public znToken;\n    struct User {\n        string nickname;\n        address wallet;\n        uint balance;\n        string[] purchased;\n        string role;\n    }\n\n    struct Product {\n        string name;\n        uint price;\n    }\n\n\n    mapping(address => User) public users;\n    mapping(address => Product[]) public carts;\n    mapping(string => uint) public products;\n    mapping(bytes32 => uint) private promocodes;\n    mapping(address => string[]) public purchased;\n\n    constructor(ZNToken _znToken) public {\n        owner = msg.sender;\n        znToken = _znToken;\n        string[] memory _a;\n        users[msg.sender] = User(\"admin\", msg.sender, 300000, _a, \"admin\");\n    }\n\n    modifier onlyOwner() {\n        require(msg.sender == owner);\n        _;\n    }\n\n    modifier onlyAdmin() {\n        require(keccak256(abi.encodePacked(\"admin\")) == keccak256(abi.encodePacked(users[msg.sender].role)));\n        _;\n    }\n\n    function register(string memory _nickname, string memory _role) public {\n        string[] memory _cart;\n        users[msg.sender] = User(_nickname, msg.sender, 0, _cart, _role);\n    }\n\n    function createProduct(string memory _name, uint _price) public onlyAdmin returns(uint) {\n        require(products[_name] == 0);\n        products[_name] = _price;\n    }\n\n    function generatePromocode(uint amount) public onlyAdmin returns (bytes32) {\n        require(amount <= 1000);\n        bytes32 promocode = keccak256(abi.encodePacked(amount + uint(msg.sender)));\n        promocodes[promocode] = amount;\n        return promocode;\n    }\n\n    function addProductToCart(string memory _name, bytes32 _promocode) public {\n        uint discount = promocodes[_promocode];\n        uint price = products[_name];\n        Product memory product = Product(_name, price - discount);\n        carts[msg.sender].push(product);\n    }\n\n    function buyProducts() public {\n        require(users[msg.sender].balance >= summCart(msg.sender));\n        //ZNToken.transfer(owner, sumCart(msg.sender));\n        users[msg.sender].balance -= summCart(msg.sender);\n        Product[] memory _products = carts[msg.sender];\n        for (uint i = 0; i < _products.length; i++) {\n            purchased[msg.sender].push(_products[i].name);\n        }\n    }\n\n    function summCart(address _wallet) public returns (uint) {\n        uint sum = 0;\n        Product[] memory _products = carts[_wallet];\n        for(uint i = 0; i < _products.length; i++) {\n            sum += _products[i].price;\n        }\n        return sum;\n    }\n\n    function balanceOf() public returns(uint) {\n        return users[msg.sender].balance;\n    }\n}\n\n//    private(       ())",
  "sourcePath": "/home/yegor/Desktop/code/zeronights/defi_tutorial/src/contracts/ShopContract.sol",
  "compiler": {
    "name": "solc",
    "version": "0.5.16+commit.9c3226ce.Emscripten.clang"
  },
  "schemaVersion": "3.2.3",
  "updatedAt": "2021-05-30T17:25:31.423Z",
  "networkType": "ethereum",
  "devdoc": {
    "methods": {}
  },
  "userdoc": {
    "methods": {}
  }
}