{
  "contractName": "ShopContract",
  "abi": [
    {
      "inputs": [],
      "payable": false,
      "stateMutability": "nonpayable",
      "type": "constructor"
    },
    {
      "constant": true,
      "inputs": [
        {
          "internalType": "address",
          "name": "",
          "type": "address"
        }
      ],
      "name": "balanceOf",
      "outputs": [
        {
          "internalType": "uint256",
          "name": "",
          "type": "uint256"
        }
      ],
      "payable": false,
      "stateMutability": "view",
      "type": "function"
    },
    {
      "constant": true,
      "inputs": [
        {
          "internalType": "address",
          "name": "",
          "type": "address"
        },
        {
          "internalType": "uint256",
          "name": "",
          "type": "uint256"
        }
      ],
      "name": "carts",
      "outputs": [
        {
          "internalType": "string",
          "name": "name",
          "type": "string"
        },
        {
          "internalType": "uint256",
          "name": "price",
          "type": "uint256"
        }
      ],
      "payable": false,
      "stateMutability": "view",
      "type": "function"
    },
    {
      "constant": true,
      "inputs": [],
      "name": "owner",
      "outputs": [
        {
          "internalType": "address",
          "name": "",
          "type": "address"
        }
      ],
      "payable": false,
      "stateMutability": "view",
      "type": "function"
    },
    {
      "constant": true,
      "inputs": [
        {
          "internalType": "string",
          "name": "",
          "type": "string"
        }
      ],
      "name": "products",
      "outputs": [
        {
          "internalType": "uint256",
          "name": "",
          "type": "uint256"
        }
      ],
      "payable": false,
      "stateMutability": "view",
      "type": "function"
    },
    {
      "constant": true,
      "inputs": [
        {
          "internalType": "bytes32",
          "name": "",
          "type": "bytes32"
        }
      ],
      "name": "promocodes",
      "outputs": [
        {
          "internalType": "uint256",
          "name": "",
          "type": "uint256"
        }
      ],
      "payable": false,
      "stateMutability": "view",
      "type": "function"
    },
    {
      "constant": true,
      "inputs": [
        {
          "internalType": "address",
          "name": "",
          "type": "address"
        },
        {
          "internalType": "uint256",
          "name": "",
          "type": "uint256"
        }
      ],
      "name": "purchased",
      "outputs": [
        {
          "internalType": "string",
          "name": "",
          "type": "string"
        }
      ],
      "payable": false,
      "stateMutability": "view",
      "type": "function"
    },
    {
      "constant": true,
      "inputs": [
        {
          "internalType": "address",
          "name": "",
          "type": "address"
        }
      ],
      "name": "users",
      "outputs": [
        {
          "internalType": "string",
          "name": "nickname",
          "type": "string"
        },
        {
          "internalType": "address",
          "name": "wallet",
          "type": "address"
        },
        {
          "internalType": "string",
          "name": "role",
          "type": "string"
        },
        {
          "internalType": "uint256",
          "name": "register",
          "type": "uint256"
        }
      ],
      "payable": false,
      "stateMutability": "view",
      "type": "function"
    },
    {
      "constant": false,
      "inputs": [],
      "name": "clearCart",
      "outputs": [],
      "payable": false,
      "stateMutability": "nonpayable",
      "type": "function"
    },
    {
      "constant": false,
      "inputs": [],
      "name": "getCart",
      "outputs": [
        {
          "components": [
            {
              "internalType": "string",
              "name": "name",
              "type": "string"
            },
            {
              "internalType": "uint256",
              "name": "price",
              "type": "uint256"
            }
          ],
          "internalType": "struct ShopContract.Product[]",
          "name": "",
          "type": "tuple[]"
        }
      ],
      "payable": false,
      "stateMutability": "nonpayable",
      "type": "function"
    },
    {
      "constant": false,
      "inputs": [],
      "name": "getPurchased",
      "outputs": [
        {
          "internalType": "string[]",
          "name": "",
          "type": "string[]"
        }
      ],
      "payable": false,
      "stateMutability": "nonpayable",
      "type": "function"
    },
    {
      "constant": false,
      "inputs": [],
      "name": "deposit",
      "outputs": [],
      "payable": true,
      "stateMutability": "payable",
      "type": "function"
    },
    {
      "constant": false,
      "inputs": [],
      "name": "isRegister",
      "outputs": [
        {
          "internalType": "bool",
          "name": "",
          "type": "bool"
        }
      ],
      "payable": false,
      "stateMutability": "nonpayable",
      "type": "function"
    },
    {
      "constant": false,
      "inputs": [],
      "name": "isAdmin",
      "outputs": [
        {
          "internalType": "bool",
          "name": "",
          "type": "bool"
        }
      ],
      "payable": false,
      "stateMutability": "nonpayable",
      "type": "function"
    },
    {
      "constant": false,
      "inputs": [
        {
          "internalType": "string",
          "name": "_nickname",
          "type": "string"
        },
        {
          "internalType": "string",
          "name": "_role",
          "type": "string"
        }
      ],
      "name": "register",
      "outputs": [],
      "payable": false,
      "stateMutability": "nonpayable",
      "type": "function"
    },
    {
      "constant": false,
      "inputs": [
        {
          "internalType": "string",
          "name": "_name",
          "type": "string"
        },
        {
          "internalType": "uint256",
          "name": "_price",
          "type": "uint256"
        }
      ],
      "name": "createProduct",
      "outputs": [
        {
          "internalType": "uint256",
          "name": "",
          "type": "uint256"
        }
      ],
      "payable": false,
      "stateMutability": "nonpayable",
      "type": "function"
    },
    {
      "constant": false,
      "inputs": [
        {
          "internalType": "uint256",
          "name": "_amount",
          "type": "uint256"
        }
      ],
      "name": "getPromocode",
      "outputs": [
        {
          "internalType": "bytes32",
          "name": "",
          "type": "bytes32"
        }
      ],
      "payable": false,
      "stateMutability": "nonpayable",
      "type": "function"
    },
    {
      "constant": false,
      "inputs": [
        {
          "internalType": "uint256",
          "name": "_amount",
          "type": "uint256"
        },
        {
          "internalType": "address",
          "name": "_wallet",
          "type": "address"
        }
      ],
      "name": "generatePromocode",
      "outputs": [
        {
          "internalType": "bytes32",
          "name": "",
          "type": "bytes32"
        }
      ],
      "payable": false,
      "stateMutability": "nonpayable",
      "type": "function"
    },
    {
      "constant": false,
      "inputs": [
        {
          "internalType": "string",
          "name": "_name",
          "type": "string"
        },
        {
          "internalType": "bytes32",
          "name": "_promocode",
          "type": "bytes32"
        }
      ],
      "name": "addProductToCart",
      "outputs": [],
      "payable": false,
      "stateMutability": "nonpayable",
      "type": "function"
    },
    {
      "constant": false,
      "inputs": [],
      "name": "buyProducts",
      "outputs": [],
      "payable": false,
      "stateMutability": "nonpayable",
      "type": "function"
    },
    {
      "constant": false,
      "inputs": [
        {
          "internalType": "address",
          "name": "_wallet",
          "type": "address"
        }
      ],
      "name": "summCart",
      "outputs": [
        {
          "internalType": "uint256",
          "name": "",
          "type": "uint256"
        }
      ],
      "payable": false,
      "stateMutability": "nonpayable",
      "type": "function"
    }
  ],
  "bytecode": "0x60806040523480156200001157600080fd5b50336000806101000a81548173ffffffffffffffffffffffffffffffffffffffff021916908373ffffffffffffffffffffffffffffffffffffffff16021790555060606040518060a001604052806040518060400160405280600581526020017f61646d696e00000000000000000000000000000000000000000000000000000081525081526020013373ffffffffffffffffffffffffffffffffffffffff1681526020018281526020016040518060400160405280600581526020017f61646d696e00000000000000000000000000000000000000000000000000000081525081526020016001815250600160003373ffffffffffffffffffffffffffffffffffffffff1673ffffffffffffffffffffffffffffffffffffffff168152602001908152602001600020600082015181600001908051906020019062000159929190620002ad565b5060208201518160010160006101000a81548173ffffffffffffffffffffffffffffffffffffffff021916908373ffffffffffffffffffffffffffffffffffffffff1602179055506040820151816002019080519060200190620001bf92919062000334565b506060820151816003019080519060200190620001de929190620002ad565b5060808201518160040155905050670de0b6b3a7640000600660003373ffffffffffffffffffffffffffffffffffffffff1673ffffffffffffffffffffffffffffffffffffffff16815260200190815260200160002081905550606460046040516200024a9062000534565b9081526020016040518091039020819055506101f460046040516200026f906200051d565b9081526020016040518091039020819055506107d06004604051620002949062000506565b9081526020016040518091039020819055505062000556565b828054600181600116156101000203166002900490600052602060002090601f016020900481019282601f10620002f057805160ff191683800117855562000321565b8280016001018555821562000321579182015b828111156200032057825182559160200191906001019062000303565b5b5090506200033091906200039b565b5090565b82805482825590600052602060002090810192821562000388579160200282015b828111156200038757825182908051906020019062000376929190620002ad565b509160200191906001019062000355565b5b509050620003979190620003c3565b5090565b620003c091905b80821115620003bc576000816000905550600101620003a2565b5090565b90565b620003f191905b80821115620003ed5760008181620003e39190620003f4565b50600101620003ca565b5090565b90565b50805460018160011615610100020316600290046000825580601f106200041c57506200043d565b601f0160209004906000526020600020908101906200043c91906200039b565b5b50565b60006200044f6004836200054b565b91507f466c6167000000000000000000000000000000000000000000000000000000006000830152600482019050919050565b6000620004916008836200054b565b91507f5469636b657420320000000000000000000000000000000000000000000000006000830152600882019050919050565b6000620004d36008836200054b565b91507f5469636b657420310000000000000000000000000000000000000000000000006000830152600882019050919050565b6000620005138262000440565b9150819050919050565b60006200052a8262000482565b9150819050919050565b60006200054182620004c4565b9150819050919050565b600081905092915050565b61237780620005666000396000f3fe60806040526004361061011f5760003560e01c8063a87430ba116100a0578063e597ef1211610064578063e597ef12146103f4578063e9300c6c14610431578063eaef9af11461046e578063ebbbdcaf14610497578063edf81d0a146104d45761011f565b8063a87430ba14610305578063b6db75a014610345578063bc605f9514610370578063cf23810e146103ad578063d0e30db0146103ea5761011f565b8063574fde97116100e7578063574fde971461021d57806370a08231146102345780638525f888146102715780638b1a2d521461029c5780638da5cb5b146102da5761011f565b80630186a4231461012457806321627dad14610161578063272e6c241461018c5780633d2bd035146101c95780633ffbd47f146101f4575b600080fd5b34801561013057600080fd5b5061014b60048036036101469190810190611a62565b6104eb565b60405161015891906120d6565b60405180910390f35b34801561016d57600080fd5b50610176610519565b6040516101839190611fd9565b60405180910390f35b34801561019857600080fd5b506101b360048036036101ae9190810190611be0565b610661565b6040516101c09190612016565b60405180910390f35b3480156101d557600080fd5b506101de61076e565b6040516101eb9190611fb7565b60405180910390f35b34801561020057600080fd5b5061021b60048036036102169190810190611af7565b610894565b005b34801561022957600080fd5b506102326109c3565b005b34801561024057600080fd5b5061025b600480360361025691908101906119d4565b610a12565b60405161026891906120d6565b60405180910390f35b34801561027d57600080fd5b50610286610a2a565b6040516102939190611ffb565b60405180910390f35b3480156102a857600080fd5b506102c360048036036102be91908101906119fd565b610ad3565b6040516102d19291906120a6565b60405180910390f35b3480156102e657600080fd5b506102ef610ba9565b6040516102fc9190611f9c565b60405180910390f35b34801561031157600080fd5b5061032c600480360361032791908101906119d4565b610bce565b60405161033c9493929190612053565b60405180910390f35b34801561035157600080fd5b5061035a610d4e565b6040516103679190611ffb565b60405180910390f35b34801561037c57600080fd5b5061039760048036036103929190810190611a39565b610df4565b6040516103a491906120d6565b60405180910390f35b3480156103b957600080fd5b506103d460048036036103cf9190810190611bb7565b610e0c565b6040516103e19190612016565b60405180910390f35b6103f2610eb6565b005b34801561040057600080fd5b5061041b600480360361041691908101906119fd565b610f87565b6040516104289190612031565b60405180910390f35b34801561043d57600080fd5b5061045860048036036104539190810190611b63565b61104d565b60405161046591906120d6565b60405180910390f35b34801561047a57600080fd5b5061049560048036036104909190810190611aa3565b6110fc565b005b3480156104a357600080fd5b506104be60048036036104b991908101906119d4565b6111f4565b6040516104cb91906120d6565b60405180910390f35b3480156104e057600080fd5b506104e9611383565b005b6004818051602081018201805184825260208301602085012081835280955050505050506000915090505481565b6060600260003373ffffffffffffffffffffffffffffffffffffffff1673ffffffffffffffffffffffffffffffffffffffff168152602001908152602001600020805480602002602001604051908101604052809291908181526020016000905b828210156106585783829060005260206000209060020201604051806040016040529081600082018054600181600116156101000203166002900480601f0160208091040260200160405190810160405280929190818152602001828054600181600116156101000203166002900480156106365780601f1061060b57610100808354040283529160200191610636565b820191906000526020600020905b81548152906001019060200180831161061957829003601f168201915b505050505081526020016001820154815250508152602001906001019061057a565b50505050905090565b6000600160003373ffffffffffffffffffffffffffffffffffffffff1673ffffffffffffffffffffffffffffffffffffffff1681526020019081526020016000206003016040516020016106b59190611f55565b604051602081830303815290604052805190602001206040516020016106da90611f6c565b60405160208183030381529060405280519060200120146106fa57600080fd5b61019083111561070957600080fd5b60008273ffffffffffffffffffffffffffffffffffffffff1684016040516020016107349190611f81565b6040516020818303038152906040528051906020012090508360056000838152602001908152602001600020819055508091505092915050565b6060600360003373ffffffffffffffffffffffffffffffffffffffff1673ffffffffffffffffffffffffffffffffffffffff168152602001908152602001600020805480602002602001604051908101604052809291908181526020016000905b8282101561088b578382906000526020600020018054600181600116156101000203166002900480601f0160208091040260200160405190810160405280929190818152602001828054600181600116156101000203166002900480156108775780601f1061084c57610100808354040283529160200191610877565b820191906000526020600020905b81548152906001019060200180831161085a57829003601f168201915b5050505050815260200190600101906107cf565b50505050905090565b60606040518060a001604052808481526020013373ffffffffffffffffffffffffffffffffffffffff1681526020018281526020018381526020016001815250600160003373ffffffffffffffffffffffffffffffffffffffff1673ffffffffffffffffffffffffffffffffffffffff168152602001908152602001600020600082015181600001908051906020019061092f929190611671565b5060208201518160010160006101000a81548173ffffffffffffffffffffffffffffffffffffffff021916908373ffffffffffffffffffffffffffffffffffffffff16021790555060408201518160020190805190602001906109939291906116f1565b5060608201518160030190805190602001906109b0929190611671565b5060808201518160040155905050505050565b6000600260003373ffffffffffffffffffffffffffffffffffffffff1673ffffffffffffffffffffffffffffffffffffffff16815260200190815260200160002081610a0f9190611751565b50565b60066020528060005260406000206000915090505481565b60003373ffffffffffffffffffffffffffffffffffffffff16600160003373ffffffffffffffffffffffffffffffffffffffff1673ffffffffffffffffffffffffffffffffffffffff16815260200190815260200160002060010160009054906101000a900473ffffffffffffffffffffffffffffffffffffffff1673ffffffffffffffffffffffffffffffffffffffff161415610acb5760019050610ad0565b600090505b90565b60026020528160005260406000208181548110610aec57fe5b906000526020600020906002020160009150915050806000018054600181600116156101000203166002900480601f016020809104026020016040519081016040528092919081815260200182805460018160011615610100020316600290048015610b995780601f10610b6e57610100808354040283529160200191610b99565b820191906000526020600020905b815481529060010190602001808311610b7c57829003601f168201915b5050505050908060010154905082565b6000809054906101000a900473ffffffffffffffffffffffffffffffffffffffff1681565b6001602052806000526040600020600091509050806000018054600181600116156101000203166002900480601f016020809104026020016040519081016040528092919081815260200182805460018160011615610100020316600290048015610c7a5780601f10610c4f57610100808354040283529160200191610c7a565b820191906000526020600020905b815481529060010190602001808311610c5d57829003601f168201915b5050505050908060010160009054906101000a900473ffffffffffffffffffffffffffffffffffffffff1690806003018054600181600116156101000203166002900480601f016020809104026020016040519081016040528092919081815260200182805460018160011615610100020316600290048015610d3e5780601f10610d1357610100808354040283529160200191610d3e565b820191906000526020600020905b815481529060010190602001808311610d2157829003601f168201915b5050505050908060040154905084565b6000604051602001610d5f90611f6c565b60405160208183030381529060405280519060200120600160003373ffffffffffffffffffffffffffffffffffffffff1673ffffffffffffffffffffffffffffffffffffffff168152602001908152602001600020600301604051602001610dc79190611f55565b604051602081830303815290604052805190602001201415610dec5760019050610df1565b600090505b90565b60056020528060005260406000206000915090505481565b6000600160003373ffffffffffffffffffffffffffffffffffffffff1673ffffffffffffffffffffffffffffffffffffffff168152602001908152602001600020600301604051602001610e609190611f55565b60405160208183030381529060405280519060200120604051602001610e8590611f6c565b6040516020818303038152906040528051906020012014610ea557600080fd5b610eaf8233610661565b9050919050565b6706f05b59d3b200003411158015610f2057506101f4655af3107a40003481610edb57fe5b04600660003373ffffffffffffffffffffffffffffffffffffffff1673ffffffffffffffffffffffffffffffffffffffff168152602001908152602001600020540111155b610f2957600080fd5b655af3107a40003481610f3857fe5b04600660003373ffffffffffffffffffffffffffffffffffffffff1673ffffffffffffffffffffffffffffffffffffffff16815260200190815260200160002060008282540192505081905550565b60036020528160005260406000208181548110610fa057fe5b90600052602060002001600091509150508054600181600116156101000203166002900480601f0160208091040260200160405190810160405280929190818152602001828054600181600116156101000203166002900480156110455780601f1061101a57610100808354040283529160200191611045565b820191906000526020600020905b81548152906001019060200180831161102857829003601f168201915b505050505081565b60008060009054906101000a900473ffffffffffffffffffffffffffffffffffffffff1673ffffffffffffffffffffffffffffffffffffffff163373ffffffffffffffffffffffffffffffffffffffff16146110a857600080fd5b60006004846040516110ba9190611f3e565b908152602001604051809103902054146110d357600080fd5b816004846040516110e49190611f3e565b90815260200160405180910390208190555092915050565b60006005600083815260200190815260200160002054905060006004846040516111269190611f3e565b908152602001604051809103902054905061113f611783565b60405180604001604052808681526020018484038152509050600260003373ffffffffffffffffffffffffffffffffffffffff1673ffffffffffffffffffffffffffffffffffffffff168152602001908152602001600020819080600181540180825580915050906001820390600052602060002090600202016000909192909190915060008201518160000190805190602001906111df929190611671565b50602082015181600101555050505050505050565b600080600090506060600260008573ffffffffffffffffffffffffffffffffffffffff1673ffffffffffffffffffffffffffffffffffffffff168152602001908152602001600020805480602002602001604051908101604052809291908181526020016000905b8282101561133a5783829060005260206000209060020201604051806040016040529081600082018054600181600116156101000203166002900480601f0160208091040260200160405190810160405280929190818152602001828054600181600116156101000203166002900480156113185780601f106112ed57610100808354040283529160200191611318565b820191906000526020600020905b8154815290600101906020018083116112fb57829003601f168201915b505050505081526020016001820154815250508152602001906001019061125c565b50505050905060008090505b81518110156113785781818151811061135b57fe5b602002602001015160200151830192508080600101915050611346565b508192505050919050565b61138c336111f4565b600660003373ffffffffffffffffffffffffffffffffffffffff1673ffffffffffffffffffffffffffffffffffffffff1681526020019081526020016000205410156113d757600080fd5b6113e0336111f4565b600660003373ffffffffffffffffffffffffffffffffffffffff1673ffffffffffffffffffffffffffffffffffffffff168152602001908152602001600020600082825403925050819055506060600260003373ffffffffffffffffffffffffffffffffffffffff1673ffffffffffffffffffffffffffffffffffffffff168152602001908152602001600020805480602002602001604051908101604052809291908181526020016000905b8282101561156b5783829060005260206000209060020201604051806040016040529081600082018054600181600116156101000203166002900480601f0160208091040260200160405190810160405280929190818152602001828054600181600116156101000203166002900480156115495780601f1061151e57610100808354040283529160200191611549565b820191906000526020600020905b81548152906001019060200180831161152c57829003601f168201915b505050505081526020016001820154815250508152602001906001019061148d565b50505050905060008090505b815181101561162057600360003373ffffffffffffffffffffffffffffffffffffffff1673ffffffffffffffffffffffffffffffffffffffff1681526020019081526020016000208282815181106115cb57fe5b602002602001015160000151908060018154018082558091505090600182039060005260206000200160009091929091909150908051906020019061161192919061179d565b50508080600101915050611577565b506000600260003373ffffffffffffffffffffffffffffffffffffffff1673ffffffffffffffffffffffffffffffffffffffff1681526020019081526020016000208161166d9190611751565b5050565b828054600181600116156101000203166002900490600052602060002090601f016020900481019282601f106116b257805160ff19168380011785556116e0565b828001600101855582156116e0579182015b828111156116df5782518255916020019190600101906116c4565b5b5090506116ed919061181d565b5090565b828054828255906000526020600020908101928215611740579160200282015b8281111561173f57825182908051906020019061172f929190611671565b5091602001919060010190611711565b5b50905061174d9190611842565b5090565b81548183558181111561177e5760020281600202836000526020600020918201910161177d919061186e565b5b505050565b604051806040016040528060608152602001600081525090565b828054600181600116156101000203166002900490600052602060002090601f016020900481019282601f106117de57805160ff191683800117855561180c565b8280016001018555821561180c579182015b8281111561180b5782518255916020019190600101906117f0565b5b509050611819919061181d565b5090565b61183f91905b8082111561183b576000816000905550600101611823565b5090565b90565b61186b91905b80821115611867576000818161185e91906118a5565b50600101611848565b5090565b90565b6118a291905b8082111561189e576000808201600061188d91906118a5565b600182016000905550600201611874565b5090565b90565b50805460018160011615610100020316600290046000825580601f106118cb57506118ea565b601f0160209004906000526020600020908101906118e9919061181d565b5b50565b6000813590506118fc816122ef565b92915050565b60008135905061191181612306565b92915050565b600082601f83011261192857600080fd5b813561193b6119368261211e565b6120f1565b9150808252602083016020830185838301111561195757600080fd5b611962838284612292565b50505092915050565b600082601f83011261197c57600080fd5b813561198f61198a8261214a565b6120f1565b915080825260208301602083018583830111156119ab57600080fd5b6119b6838284612292565b50505092915050565b6000813590506119ce8161231d565b92915050565b6000602082840312156119e657600080fd5b60006119f4848285016118ed565b91505092915050565b60008060408385031215611a1057600080fd5b6000611a1e858286016118ed565b9250506020611a2f858286016119bf565b9150509250929050565b600060208284031215611a4b57600080fd5b6000611a5984828501611902565b91505092915050565b600060208284031215611a7457600080fd5b600082013567ffffffffffffffff811115611a8e57600080fd5b611a9a84828501611917565b91505092915050565b60008060408385031215611ab657600080fd5b600083013567ffffffffffffffff811115611ad057600080fd5b611adc8582860161196b565b9250506020611aed85828601611902565b9150509250929050565b60008060408385031215611b0a57600080fd5b600083013567ffffffffffffffff811115611b2457600080fd5b611b308582860161196b565b925050602083013567ffffffffffffffff811115611b4d57600080fd5b611b598582860161196b565b9150509250929050565b60008060408385031215611b7657600080fd5b600083013567ffffffffffffffff811115611b9057600080fd5b611b9c8582860161196b565b9250506020611bad858286016119bf565b9150509250929050565b600060208284031215611bc957600080fd5b6000611bd7848285016119bf565b91505092915050565b60008060408385031215611bf357600080fd5b6000611c01858286016119bf565b9250506020611c12858286016118ed565b9150509250929050565b6000611c288383611d8c565b905092915050565b6000611c3c8383611ecc565b905092915050565b611c4d81612240565b82525050565b6000611c5e826121ab565b611c6881856121f1565b935083602082028501611c7a85612176565b8060005b85811015611cb65784840389528151611c978582611c1c565b9450611ca2836121d7565b925060208a01995050600181019050611c7e565b50829750879550505050505092915050565b6000611cd3826121b6565b611cdd8185612202565b935083602082028501611cef85612186565b8060005b85811015611d2b5784840389528151611d0c8582611c30565b9450611d17836121e4565b925060208a01995050600181019050611cf3565b50829750879550505050505092915050565b611d4681612252565b82525050565b611d558161225e565b82525050565b6000611d66826121cc565b611d708185612235565b9350611d808185602086016122a1565b80840191505092915050565b6000611d97826121c1565b611da18185612213565b9350611db18185602086016122a1565b611dba816122de565b840191505092915050565b6000611dd0826121c1565b611dda8185612224565b9350611dea8185602086016122a1565b611df3816122de565b840191505092915050565b600081546001811660008114611e1b5760018114611e4057611e84565b607f6002830416611e2c8187612235565b955060ff1983168652808601935050611e84565b60028204611e4e8187612235565b9550611e5985612196565b60005b82811015611e7b57815481890152600182019150602081019050611e5c565b82880195505050505b505092915050565b6000611e99600583612235565b91507f61646d696e0000000000000000000000000000000000000000000000000000006000830152600582019050919050565b60006040830160008301518482036000860152611ee98282611d8c565b9150506020830151611efe6020860182611f09565b508091505092915050565b611f1281612288565b82525050565b611f2181612288565b82525050565b611f38611f3382612288565b6122d4565b82525050565b6000611f4a8284611d5b565b915081905092915050565b6000611f618284611dfe565b915081905092915050565b6000611f7782611e8c565b9150819050919050565b6000611f8d8284611f27565b60208201915081905092915050565b6000602082019050611fb16000830184611c44565b92915050565b60006020820190508181036000830152611fd18184611c53565b905092915050565b60006020820190508181036000830152611ff38184611cc8565b905092915050565b60006020820190506120106000830184611d3d565b92915050565b600060208201905061202b6000830184611d4c565b92915050565b6000602082019050818103600083015261204b8184611dc5565b905092915050565b6000608082019050818103600083015261206d8187611dc5565b905061207c6020830186611c44565b818103604083015261208e8185611dc5565b905061209d6060830184611f18565b95945050505050565b600060408201905081810360008301526120c08185611dc5565b90506120cf6020830184611f18565b9392505050565b60006020820190506120eb6000830184611f18565b92915050565b6000604051905081810181811067ffffffffffffffff8211171561211457600080fd5b8060405250919050565b600067ffffffffffffffff82111561213557600080fd5b601f19601f8301169050602081019050919050565b600067ffffffffffffffff82111561216157600080fd5b601f19601f8301169050602081019050919050565b6000819050602082019050919050565b6000819050602082019050919050565b60008190508160005260206000209050919050565b600081519050919050565b600081519050919050565b600081519050919050565b600081519050919050565b6000602082019050919050565b6000602082019050919050565b600082825260208201905092915050565b600082825260208201905092915050565b600082825260208201905092915050565b600082825260208201905092915050565b600081905092915050565b600061224b82612268565b9050919050565b60008115159050919050565b6000819050919050565b600073ffffffffffffffffffffffffffffffffffffffff82169050919050565b6000819050919050565b82818337600083830152505050565b60005b838110156122bf5780820151818401526020810190506122a4565b838111156122ce576000848401525b50505050565b6000819050919050565b6000601f19601f8301169050919050565b6122f881612240565b811461230357600080fd5b50565b61230f8161225e565b811461231a57600080fd5b50565b61232681612288565b811461233157600080fd5b5056fea365627a7a723158200a6a20bc865da2a1b389af959199ce0bd188bfd924dc95ae9d731901f312a0b86c6578706572696d656e74616cf564736f6c63430005100040",
  "source": "pragma solidity ^0.5.0;\npragma experimental ABIEncoderV2;\n\n\ncontract ShopContract {\n\n    address public owner;\n    struct User {\n        string nickname;\n        address wallet;\n        string[] purchased;\n        string role;\n        uint register;\n    }\n\n    struct Product {\n        string name;\n        uint price;\n    }\n\n\n    mapping(address => User) public users;\n    mapping(address => Product[]) public carts;\n    mapping(address => string[]) public purchased;\n    mapping(string => uint) public products;\n    mapping(bytes32 => uint) public promocodes;\n    mapping(address => uint) public balanceOf;\n\n    constructor() public {\n        owner = msg.sender;\n        string[] memory _a;\n        users[msg.sender] = User(\"admin\", msg.sender, _a, \"admin\", 1);\n        balanceOf[msg.sender] = 1 ether;\n        products[\"Ticket 1\"] = 100;\n        products[\"Ticket 2\"] = 500;\n        products[\"Flag\"] = 2000;\n    }\n\n    function clearCart() public {\n        carts[msg.sender].length = 0;\n    }\n    function getCart() public returns (Product[] memory) {\n        return carts[msg.sender];\n    }\n\n    function getPurchased() public returns(string[] memory){\n        return purchased[msg.sender];\n    }\n\n    function deposit() public payable {\n        require(msg.value <= 0.5 ether && balanceOf[msg.sender] + (msg.value / 100000000000000) <= 500);\n        balanceOf[msg.sender] += msg.value / 100000000000000;\n    }\n\n    modifier onlyOwner() {\n        require(msg.sender == owner);\n        _;\n    }\n\n    modifier onlyAdmin() {\n        require(keccak256(abi.encodePacked(\"admin\")) == keccak256(abi.encodePacked(users[msg.sender].role)));\n        _;\n    }\n\n    function isRegister() public returns (bool){\n        if(users[msg.sender].wallet == msg.sender) {\n            return true;\n        }\n        return false;\n    }\n\n    function isAdmin() public returns (bool) {\n        if(keccak256(abi.encodePacked(users[msg.sender].role)) == keccak256(abi.encodePacked(\"admin\"))) {\n            return true;\n        }\n        return false;\n    }\n\n    function register(string memory _nickname, string memory _role) public {\n        string[] memory _cart;\n        users[msg.sender] = User(_nickname, msg.sender, _cart, _role, 1);\n    }\n\n    function createProduct(string memory _name, uint _price) public onlyOwner returns(uint) {\n        require(products[_name] == 0);\n        products[_name] = _price;\n    }\n\n    function getPromocode(uint _amount) public onlyAdmin returns (bytes32) {\n        return generatePromocode(_amount, msg.sender);   \n    }\n\n    function generatePromocode(uint _amount, address _wallet) public onlyAdmin returns (bytes32) {\n        require(_amount <= 400);\n        bytes32 promocode = keccak256(abi.encodePacked(_amount + uint(_wallet)));\n        promocodes[promocode] = _amount;\n        return promocode;\n    }\n\n    function addProductToCart(string memory _name, bytes32 _promocode) public {\n        uint discount = promocodes[_promocode];\n        uint price = products[_name];\n        Product memory product = Product(_name, price - discount);\n        carts[msg.sender].push(product);\n    }\n\n    function buyProducts() public {\n        require(balanceOf[msg.sender] >= summCart(msg.sender));\n        balanceOf[msg.sender] -= summCart(msg.sender);\n        Product[] memory _products = carts[msg.sender];\n        for (uint i = 0; i < _products.length; i++) {\n            purchased[msg.sender].push(_products[i].name);\n        }\n        carts[msg.sender].length = 0;\n    }\n\n    function summCart(address _wallet) public returns (uint) {\n        uint sum = 0;\n        Product[] memory _products = carts[_wallet];\n        for(uint i = 0; i < _products.length; i++) {\n            sum += _products[i].price;\n        }\n        return sum;\n    }\n}",
  "sourcePath": "/home/yegor/Desktop/code/zeronights/defi_tutorial/src/contracts/ShopContract.sol",
  "compiler": {
    "name": "solc",
    "version": "0.5.16+commit.9c3226ce.Emscripten.clang"
  },
  "schemaVersion": "3.4.1",
  "updatedAt": "2021-06-17T15:34:42.344Z",
  "networkType": "ethereum",
  "devdoc": {
    "methods": {}
  },
  "userdoc": {
    "methods": {}
  }
}