{
  "contractName": "ShopContract",
  "abi": [
    {
      "inputs": [
        {
          "internalType": "contract ZNToken",
          "name": "_znToken",
          "type": "address"
        }
      ],
      "payable": false,
      "stateMutability": "nonpayable",
      "type": "constructor"
    },
    {
      "constant": true,
      "inputs": [
        {
          "internalType": "address",
          "name": "",
          "type": "address"
        },
        {
          "internalType": "uint256",
          "name": "",
          "type": "uint256"
        }
      ],
      "name": "carts",
      "outputs": [
        {
          "internalType": "string",
          "name": "name",
          "type": "string"
        },
        {
          "internalType": "uint256",
          "name": "price",
          "type": "uint256"
        }
      ],
      "payable": false,
      "stateMutability": "view",
      "type": "function"
    },
    {
      "constant": true,
      "inputs": [],
      "name": "owner",
      "outputs": [
        {
          "internalType": "address",
          "name": "",
          "type": "address"
        }
      ],
      "payable": false,
      "stateMutability": "view",
      "type": "function"
    },
    {
      "constant": true,
      "inputs": [
        {
          "internalType": "string",
          "name": "",
          "type": "string"
        }
      ],
      "name": "products",
      "outputs": [
        {
          "internalType": "uint256",
          "name": "",
          "type": "uint256"
        }
      ],
      "payable": false,
      "stateMutability": "view",
      "type": "function"
    },
    {
      "constant": true,
      "inputs": [
        {
          "internalType": "address",
          "name": "",
          "type": "address"
        },
        {
          "internalType": "uint256",
          "name": "",
          "type": "uint256"
        }
      ],
      "name": "purchased",
      "outputs": [
        {
          "internalType": "string",
          "name": "",
          "type": "string"
        }
      ],
      "payable": false,
      "stateMutability": "view",
      "type": "function"
    },
    {
      "constant": true,
      "inputs": [
        {
          "internalType": "address",
          "name": "",
          "type": "address"
        }
      ],
      "name": "users",
      "outputs": [
        {
          "internalType": "string",
          "name": "nickname",
          "type": "string"
        },
        {
          "internalType": "address",
          "name": "wallet",
          "type": "address"
        },
        {
          "internalType": "uint256",
          "name": "balance",
          "type": "uint256"
        },
        {
          "internalType": "string",
          "name": "role",
          "type": "string"
        },
        {
          "internalType": "uint256",
          "name": "register",
          "type": "uint256"
        }
      ],
      "payable": false,
      "stateMutability": "view",
      "type": "function"
    },
    {
      "constant": true,
      "inputs": [],
      "name": "znToken",
      "outputs": [
        {
          "internalType": "contract ZNToken",
          "name": "",
          "type": "address"
        }
      ],
      "payable": false,
      "stateMutability": "view",
      "type": "function"
    },
    {
      "constant": false,
      "inputs": [
        {
          "internalType": "address",
          "name": "_wallet",
          "type": "address"
        }
      ],
      "name": "isRegister",
      "outputs": [
        {
          "internalType": "bool",
          "name": "",
          "type": "bool"
        }
      ],
      "payable": false,
      "stateMutability": "nonpayable",
      "type": "function"
    },
    {
      "constant": false,
      "inputs": [
        {
          "internalType": "address",
          "name": "_wallet",
          "type": "address"
        }
      ],
      "name": "isAdmin",
      "outputs": [
        {
          "internalType": "bool",
          "name": "",
          "type": "bool"
        }
      ],
      "payable": false,
      "stateMutability": "nonpayable",
      "type": "function"
    },
    {
      "constant": false,
      "inputs": [
        {
          "internalType": "string",
          "name": "_nickname",
          "type": "string"
        },
        {
          "internalType": "string",
          "name": "_role",
          "type": "string"
        }
      ],
      "name": "register",
      "outputs": [],
      "payable": false,
      "stateMutability": "nonpayable",
      "type": "function"
    },
    {
      "constant": false,
      "inputs": [
        {
          "internalType": "string",
          "name": "_name",
          "type": "string"
        },
        {
          "internalType": "uint256",
          "name": "_price",
          "type": "uint256"
        }
      ],
      "name": "createProduct",
      "outputs": [
        {
          "internalType": "uint256",
          "name": "",
          "type": "uint256"
        }
      ],
      "payable": false,
      "stateMutability": "nonpayable",
      "type": "function"
    },
    {
      "constant": false,
      "inputs": [
        {
          "internalType": "uint256",
          "name": "amount",
          "type": "uint256"
        }
      ],
      "name": "generatePromocode",
      "outputs": [
        {
          "internalType": "bytes32",
          "name": "",
          "type": "bytes32"
        }
      ],
      "payable": false,
      "stateMutability": "nonpayable",
      "type": "function"
    },
    {
      "constant": false,
      "inputs": [
        {
          "internalType": "string",
          "name": "_name",
          "type": "string"
        },
        {
          "internalType": "bytes32",
          "name": "_promocode",
          "type": "bytes32"
        }
      ],
      "name": "addProductToCart",
      "outputs": [],
      "payable": false,
      "stateMutability": "nonpayable",
      "type": "function"
    },
    {
      "constant": false,
      "inputs": [],
      "name": "buyProducts",
      "outputs": [],
      "payable": false,
      "stateMutability": "nonpayable",
      "type": "function"
    },
    {
      "constant": false,
      "inputs": [
        {
          "internalType": "address",
          "name": "_wallet",
          "type": "address"
        }
      ],
      "name": "summCart",
      "outputs": [
        {
          "internalType": "uint256",
          "name": "",
          "type": "uint256"
        }
      ],
      "payable": false,
      "stateMutability": "nonpayable",
      "type": "function"
    },
    {
      "constant": false,
      "inputs": [],
      "name": "balanceOf",
      "outputs": [
        {
          "internalType": "uint256",
          "name": "",
          "type": "uint256"
        }
      ],
      "payable": false,
      "stateMutability": "nonpayable",
      "type": "function"
    }
  ],
  "bytecode": "0x60806040523480156200001157600080fd5b506040516200200e3803806200200e833981810160405260208110156200003757600080fd5b8101908080519060200190929190505050336000806101000a81548173ffffffffffffffffffffffffffffffffffffffff021916908373ffffffffffffffffffffffffffffffffffffffff16021790555080600160006101000a81548173ffffffffffffffffffffffffffffffffffffffff021916908373ffffffffffffffffffffffffffffffffffffffff16021790555060606040518060c001604052806040518060400160405280600581526020017f61646d696e00000000000000000000000000000000000000000000000000000081525081526020013373ffffffffffffffffffffffffffffffffffffffff168152602001620493e081526020018281526020016040518060400160405280600581526020017f61646d696e00000000000000000000000000000000000000000000000000000081525081526020016001815250600260003373ffffffffffffffffffffffffffffffffffffffff1673ffffffffffffffffffffffffffffffffffffffff1681526020019081526020016000206000820151816000019080519060200190620001d99291906200027e565b5060208201518160010160006101000a81548173ffffffffffffffffffffffffffffffffffffffff021916908373ffffffffffffffffffffffffffffffffffffffff1602179055506040820151816002015560608201518160030190805190602001906200024992919062000305565b506080820151816004019080519060200190620002689291906200027e565b5060a08201518160050155905050505062000411565b828054600181600116156101000203166002900490600052602060002090601f016020900481019282601f10620002c157805160ff1916838001178555620002f2565b82800160010185558215620002f2579182015b82811115620002f1578251825591602001919060010190620002d4565b5b5090506200030191906200036c565b5090565b82805482825590600052602060002090810192821562000359579160200282015b8281111562000358578251829080519060200190620003479291906200027e565b509160200191906001019062000326565b5b50905062000368919062000394565b5090565b6200039191905b808211156200038d57600081600090555060010162000373565b5090565b90565b620003c291905b80821115620003be5760008181620003b49190620003c5565b506001016200039b565b5090565b90565b50805460018160011615610100020316600290046000825580601f10620003ed57506200040e565b601f0160209004906000526020600020908101906200040d91906200036c565b5b50565b611bed80620004216000396000f3fe608060405234801561001057600080fd5b50600436106100f55760003560e01c80638b1a2d5211610097578063e9300c6c11610066578063e9300c6c146107c6578063eaef9af11461089f578063ebbbdcaf14610964578063edf81d0a146109bc576100f5565b80638b1a2d521461047d5780638da5cb5b1461054b578063a87430ba14610595578063e597ef12146106ff576100f5565b80633d6d8e27116100d35780633d6d8e27146102815780633ffbd47f146102cb57806364d2d5f41461041d578063722713f71461045f576100f5565b80630186a423146100fa57806322fdef94146101c957806324d7806c14610225575b600080fd5b6101b36004803603602081101561011057600080fd5b810190808035906020019064010000000081111561012d57600080fd5b82018360208201111561013f57600080fd5b8035906020019184600183028401116401000000008311171561016157600080fd5b91908080601f016020809104026020016040519081016040528093929190818152602001838380828437600081840152601f19601f8201169050808301925050505050505091929192905050506109c6565b6040518082815260200191505060405180910390f35b61020b600480360360208110156101df57600080fd5b81019080803573ffffffffffffffffffffffffffffffffffffffff1690602001909291905050506109f4565b604051808215151515815260200191505060405180910390f35b6102676004803603602081101561023b57600080fd5b81019080803573ffffffffffffffffffffffffffffffffffffffff169060200190929190505050610a9f565b604051808215151515815260200191505060405180910390f35b610289610bbc565b604051808273ffffffffffffffffffffffffffffffffffffffff1673ffffffffffffffffffffffffffffffffffffffff16815260200191505060405180910390f35b61041b600480360360408110156102e157600080fd5b81019080803590602001906401000000008111156102fe57600080fd5b82018360208201111561031057600080fd5b8035906020019184600183028401116401000000008311171561033257600080fd5b91908080601f016020809104026020016040519081016040528093929190818152602001838380828437600081840152601f19601f8201169050808301925050505050505091929192908035906020019064010000000081111561039557600080fd5b8201836020820111156103a757600080fd5b803590602001918460018302840111640100000000831117156103c957600080fd5b91908080601f016020809104026020016040519081016040528093929190818152602001838380828437600081840152601f19601f820116905080830192505050505050509192919290505050610be2565b005b6104496004803603602081101561043357600080fd5b8101908080359060200190929190505050610d22565b6040518082815260200191505060405180910390f35b610467610ea3565b6040518082815260200191505060405180910390f35b6104c96004803603604081101561049357600080fd5b81019080803573ffffffffffffffffffffffffffffffffffffffff16906020019092919080359060200190929190505050610eed565b6040518080602001838152602001828103825284818151815260200191508051906020019080838360005b8381101561050f5780820151818401526020810190506104f4565b50505050905090810190601f16801561053c5780820380516001836020036101000a031916815260200191505b50935050505060405180910390f35b610553610fc3565b604051808273ffffffffffffffffffffffffffffffffffffffff1673ffffffffffffffffffffffffffffffffffffffff16815260200191505060405180910390f35b6105d7600480360360208110156105ab57600080fd5b81019080803573ffffffffffffffffffffffffffffffffffffffff169060200190929190505050610fe8565b60405180806020018673ffffffffffffffffffffffffffffffffffffffff1673ffffffffffffffffffffffffffffffffffffffff16815260200185815260200180602001848152602001838103835288818151815260200191508051906020019080838360005b8381101561065957808201518184015260208101905061063e565b50505050905090810190601f1680156106865780820380516001836020036101000a031916815260200191505b50838103825285818151815260200191508051906020019080838360005b838110156106bf5780820151818401526020810190506106a4565b50505050905090810190601f1680156106ec5780820380516001836020036101000a031916815260200191505b5097505050505050505060405180910390f35b61074b6004803603604081101561071557600080fd5b81019080803573ffffffffffffffffffffffffffffffffffffffff1690602001909291908035906020019092919050505061116e565b6040518080602001828103825283818151815260200191508051906020019080838360005b8381101561078b578082015181840152602081019050610770565b50505050905090810190601f1680156107b85780820380516001836020036101000a031916815260200191505b509250505060405180910390f35b610889600480360360408110156107dc57600080fd5b81019080803590602001906401000000008111156107f957600080fd5b82018360208201111561080b57600080fd5b8035906020019184600183028401116401000000008311171561082d57600080fd5b91908080601f016020809104026020016040519081016040528093929190818152602001838380828437600081840152601f19601f82011690508083019250505050505050919291929080359060200190929190505050611234565b6040518082815260200191505060405180910390f35b610962600480360360408110156108b557600080fd5b81019080803590602001906401000000008111156108d257600080fd5b8201836020820111156108e457600080fd5b8035906020019184600183028401116401000000008311171561090657600080fd5b91908080601f016020809104026020016040519081016040528093929190818152602001838380828437600081840152601f19601f8201169050808301925050505050505091929192908035906020019092919050505061142c565b005b6109a66004803603602081101561097a57600080fd5b81019080803573ffffffffffffffffffffffffffffffffffffffff16906020019092919050505061156f565b6040518082815260200191505060405180910390f35b6109c46116fe565b005b6004818051602081018201805184825260208301602085012081835280955050505050506000915090505481565b60003373ffffffffffffffffffffffffffffffffffffffff16600260003373ffffffffffffffffffffffffffffffffffffffff1673ffffffffffffffffffffffffffffffffffffffff16815260200190815260200160002060010160009054906101000a900473ffffffffffffffffffffffffffffffffffffffff1673ffffffffffffffffffffffffffffffffffffffff161415610a955760019050610a9a565b600090505b919050565b600060405160200180807f61646d696e000000000000000000000000000000000000000000000000000000815250600501905060405160208183030381529060405280519060200120600260003373ffffffffffffffffffffffffffffffffffffffff1673ffffffffffffffffffffffffffffffffffffffff1681526020019081526020016000206004016040516020018082805460018160011615610100020316600290048015610b885780601f10610b66576101008083540402835291820191610b88565b820191906000526020600020905b815481529060010190602001808311610b74575b5050915050604051602081830303815290604052805190602001201415610bb25760019050610bb7565b600090505b919050565b600160009054906101000a900473ffffffffffffffffffffffffffffffffffffffff1681565b60606040518060c001604052808481526020013373ffffffffffffffffffffffffffffffffffffffff168152602001600081526020018281526020018381526020016001815250600260003373ffffffffffffffffffffffffffffffffffffffff1673ffffffffffffffffffffffffffffffffffffffff1681526020019081526020016000206000820151816000019080519060200190610c849291906119a5565b5060208201518160010160006101000a81548173ffffffffffffffffffffffffffffffffffffffff021916908373ffffffffffffffffffffffffffffffffffffffff160217905550604082015181600201556060820151816003019080519060200190610cf2929190611a25565b506080820151816004019080519060200190610d0f9291906119a5565b5060a08201518160050155905050505050565b6000600260003373ffffffffffffffffffffffffffffffffffffffff1673ffffffffffffffffffffffffffffffffffffffff1681526020019081526020016000206004016040516020018082805460018160011615610100020316600290048015610dc45780601f10610da2576101008083540402835291820191610dc4565b820191906000526020600020905b815481529060010190602001808311610db0575b50509150506040516020818303038152906040528051906020012060405160200180807f61646d696e00000000000000000000000000000000000000000000000000000081525060050190506040516020818303038152906040528051906020012014610e3057600080fd5b6103e8821115610e3f57600080fd5b60003373ffffffffffffffffffffffffffffffffffffffff1683016040516020018082815260200191505060405160208183030381529060405280519060200120905082600560008381526020019081526020016000208190555080915050919050565b6000600260003373ffffffffffffffffffffffffffffffffffffffff1673ffffffffffffffffffffffffffffffffffffffff16815260200190815260200160002060020154905090565b60036020528160005260406000208181548110610f0657fe5b906000526020600020906002020160009150915050806000018054600181600116156101000203166002900480601f016020809104026020016040519081016040528092919081815260200182805460018160011615610100020316600290048015610fb35780601f10610f8857610100808354040283529160200191610fb3565b820191906000526020600020905b815481529060010190602001808311610f9657829003601f168201915b5050505050908060010154905082565b6000809054906101000a900473ffffffffffffffffffffffffffffffffffffffff1681565b6002602052806000526040600020600091509050806000018054600181600116156101000203166002900480601f0160208091040260200160405190810160405280929190818152602001828054600181600116156101000203166002900480156110945780601f1061106957610100808354040283529160200191611094565b820191906000526020600020905b81548152906001019060200180831161107757829003601f168201915b5050505050908060010160009054906101000a900473ffffffffffffffffffffffffffffffffffffffff1690806002015490806004018054600181600116156101000203166002900480601f01602080910402602001604051908101604052809291908181526020018280546001816001161561010002031660029004801561115e5780601f106111335761010080835404028352916020019161115e565b820191906000526020600020905b81548152906001019060200180831161114157829003601f168201915b5050505050908060050154905085565b6006602052816000526040600020818154811061118757fe5b90600052602060002001600091509150508054600181600116156101000203166002900480601f01602080910402602001604051908101604052809291908181526020018280546001816001161561010002031660029004801561122c5780601f106112015761010080835404028352916020019161122c565b820191906000526020600020905b81548152906001019060200180831161120f57829003601f168201915b505050505081565b6000600260003373ffffffffffffffffffffffffffffffffffffffff1673ffffffffffffffffffffffffffffffffffffffff16815260200190815260200160002060040160405160200180828054600181600116156101000203166002900480156112d65780601f106112b45761010080835404028352918201916112d6565b820191906000526020600020905b8154815290600101906020018083116112c2575b50509150506040516020818303038152906040528051906020012060405160200180807f61646d696e0000000000000000000000000000000000000000000000000000008152506005019050604051602081830303815290604052805190602001201461134257600080fd5b60006004846040518082805190602001908083835b6020831061137a5780518252602082019150602081019050602083039250611357565b6001836020036101000a038019825116818451168082178552505050505050905001915050908152602001604051809103902054146113b857600080fd5b816004846040518082805190602001908083835b602083106113ef57805182526020820191506020810190506020830392506113cc565b6001836020036101000a03801982511681845116808217855250505050505090500191505090815260200160405180910390208190555092915050565b60006005600083815260200190815260200160002054905060006004846040518082805190602001908083835b6020831061147c5780518252602082019150602081019050602083039250611459565b6001836020036101000a03801982511681845116808217855250505050505090500191505090815260200160405180910390205490506114ba611a85565b60405180604001604052808681526020018484038152509050600360003373ffffffffffffffffffffffffffffffffffffffff1673ffffffffffffffffffffffffffffffffffffffff1681526020019081526020016000208190806001815401808255809150509060018203906000526020600020906002020160009091929091909150600082015181600001908051906020019061155a9291906119a5565b50602082015181600101555050505050505050565b600080600090506060600360008573ffffffffffffffffffffffffffffffffffffffff1673ffffffffffffffffffffffffffffffffffffffff168152602001908152602001600020805480602002602001604051908101604052809291908181526020016000905b828210156116b55783829060005260206000209060020201604051806040016040529081600082018054600181600116156101000203166002900480601f0160208091040260200160405190810160405280929190818152602001828054600181600116156101000203166002900480156116935780601f1061166857610100808354040283529160200191611693565b820191906000526020600020905b81548152906001019060200180831161167657829003601f168201915b50505050508152602001600182015481525050815260200190600101906115d7565b50505050905060008090505b81518110156116f3578181815181106116d657fe5b6020026020010151602001518301925080806001019150506116c1565b508192505050919050565b6117073361156f565b600260003373ffffffffffffffffffffffffffffffffffffffff1673ffffffffffffffffffffffffffffffffffffffff16815260200190815260200160002060020154101561175557600080fd5b61175e3361156f565b600260003373ffffffffffffffffffffffffffffffffffffffff1673ffffffffffffffffffffffffffffffffffffffff168152602001908152602001600020600201600082825403925050819055506060600360003373ffffffffffffffffffffffffffffffffffffffff1673ffffffffffffffffffffffffffffffffffffffff168152602001908152602001600020805480602002602001604051908101604052809291908181526020016000905b828210156118ec5783829060005260206000209060020201604051806040016040529081600082018054600181600116156101000203166002900480601f0160208091040260200160405190810160405280929190818152602001828054600181600116156101000203166002900480156118ca5780601f1061189f576101008083540402835291602001916118ca565b820191906000526020600020905b8154815290600101906020018083116118ad57829003601f168201915b505050505081526020016001820154815250508152602001906001019061180e565b50505050905060008090505b81518110156119a157600660003373ffffffffffffffffffffffffffffffffffffffff1673ffffffffffffffffffffffffffffffffffffffff16815260200190815260200160002082828151811061194c57fe5b6020026020010151600001519080600181540180825580915050906001820390600052602060002001600090919290919091509080519060200190611992929190611a9f565b505080806001019150506118f8565b5050565b828054600181600116156101000203166002900490600052602060002090601f016020900481019282601f106119e657805160ff1916838001178555611a14565b82800160010185558215611a14579182015b82811115611a135782518255916020019190600101906119f8565b5b509050611a219190611b1f565b5090565b828054828255906000526020600020908101928215611a74579160200282015b82811115611a73578251829080519060200190611a639291906119a5565b5091602001919060010190611a45565b5b509050611a819190611b44565b5090565b604051806040016040528060608152602001600081525090565b828054600181600116156101000203166002900490600052602060002090601f016020900481019282601f10611ae057805160ff1916838001178555611b0e565b82800160010185558215611b0e579182015b82811115611b0d578251825591602001919060010190611af2565b5b509050611b1b9190611b1f565b5090565b611b4191905b80821115611b3d576000816000905550600101611b25565b5090565b90565b611b6d91905b80821115611b695760008181611b609190611b70565b50600101611b4a565b5090565b90565b50805460018160011615610100020316600290046000825580601f10611b965750611bb5565b601f016020900490600052602060002090810190611bb49190611b1f565b5b5056fea265627a7a723158200a6afa39e921e9162ff8e16887634a23c2a53b834fae57611562f2a5ef3b693b64736f6c63430005100032",
  "source": "pragma solidity ^0.5.0;\n//pragma experimental ABIEncoderV2;\nimport './ZNToken.sol';\n\ncontract ShopContract {\n\n    address public owner;\n    ZNToken public znToken;\n    struct User {\n        string nickname;\n        address wallet;\n        uint balance;\n        string[] purchased;\n        string role;\n        uint register;\n    }\n\n    struct Product {\n        string name;\n        uint price;\n    }\n\n\n    mapping(address => User) public users;\n    mapping(address => Product[]) public carts;\n    mapping(string => uint) public products;\n    mapping(bytes32 => uint) private promocodes;\n    mapping(address => string[]) public purchased;\n\n    constructor(ZNToken _znToken) public {\n        owner = msg.sender;\n        znToken = _znToken;\n        string[] memory _a;\n        users[msg.sender] = User(\"admin\", msg.sender, 300000, _a, \"admin\", 1);\n    }\n\n    modifier onlyOwner() {\n        require(msg.sender == owner);\n        _;\n    }\n\n    modifier onlyAdmin() {\n        require(keccak256(abi.encodePacked(\"admin\")) == keccak256(abi.encodePacked(users[msg.sender].role)));\n        _;\n    }\n\n    function isRegister(address _wallet) public returns (bool){\n        if(users[msg.sender].wallet == msg.sender) {\n            return true;\n        }\n\n        return false;\n    }\n\n    function isAdmin(address _wallet) public returns (bool) {\n        if(keccak256(abi.encodePacked(users[msg.sender].role)) == keccak256(abi.encodePacked(\"admin\"))) {\n            return true;\n        }\n\n        return false;\n    }\n\n    function register(string memory _nickname, string memory _role) public {\n        string[] memory _cart;\n        users[msg.sender] = User(_nickname, msg.sender, 0, _cart, _role, 1);\n    }\n\n    function createProduct(string memory _name, uint _price) public onlyAdmin returns(uint) {\n        require(products[_name] == 0);\n        products[_name] = _price;\n    }\n\n    function generatePromocode(uint amount) public onlyAdmin returns (bytes32) {\n        require(amount <= 1000);\n        bytes32 promocode = keccak256(abi.encodePacked(amount + uint(msg.sender)));\n        promocodes[promocode] = amount;\n        return promocode;\n    }\n\n    function addProductToCart(string memory _name, bytes32 _promocode) public {\n        uint discount = promocodes[_promocode];\n        uint price = products[_name];\n        Product memory product = Product(_name, price - discount);\n        carts[msg.sender].push(product);\n    }\n\n    function buyProducts() public {\n        require(users[msg.sender].balance >= summCart(msg.sender));\n        //ZNToken.transfer(owner, sumCart(msg.sender));\n        users[msg.sender].balance -= summCart(msg.sender);\n        Product[] memory _products = carts[msg.sender];\n        for (uint i = 0; i < _products.length; i++) {\n            purchased[msg.sender].push(_products[i].name);\n        }\n    }\n\n    function summCart(address _wallet) public returns (uint) {\n        uint sum = 0;\n        Product[] memory _products = carts[_wallet];\n        for(uint i = 0; i < _products.length; i++) {\n            sum += _products[i].price;\n        }\n        return sum;\n    }\n\n    function balanceOf() public returns(uint) {\n        return users[msg.sender].balance;\n    }\n}\n\n//    private(       ())",
  "sourcePath": "/home/yegor/Desktop/code/zeronights/defi_tutorial/src/contracts/ShopContract.sol",
  "compiler": {
    "name": "solc",
    "version": "0.5.16+commit.9c3226ce.Emscripten.clang"
  },
  "schemaVersion": "3.2.3",
  "updatedAt": "2021-06-06T11:23:13.904Z",
  "networkType": "ethereum",
  "devdoc": {
    "methods": {}
  },
  "userdoc": {
    "methods": {}
  }
}