{
  "contractName": "ShopContract",
  "abi": [
    {
      "inputs": [
        {
          "internalType": "contract ZNToken",
          "name": "_znToken",
          "type": "address"
        }
      ],
      "payable": false,
      "stateMutability": "nonpayable",
      "type": "constructor"
    },
    {
      "constant": true,
      "inputs": [
        {
          "internalType": "address",
          "name": "",
          "type": "address"
        }
      ],
      "name": "balanceOf",
      "outputs": [
        {
          "internalType": "uint256",
          "name": "",
          "type": "uint256"
        }
      ],
      "payable": false,
      "stateMutability": "view",
      "type": "function"
    },
    {
      "constant": true,
      "inputs": [
        {
          "internalType": "address",
          "name": "",
          "type": "address"
        },
        {
          "internalType": "uint256",
          "name": "",
          "type": "uint256"
        }
      ],
      "name": "carts",
      "outputs": [
        {
          "internalType": "string",
          "name": "name",
          "type": "string"
        },
        {
          "internalType": "uint256",
          "name": "price",
          "type": "uint256"
        }
      ],
      "payable": false,
      "stateMutability": "view",
      "type": "function"
    },
    {
      "constant": true,
      "inputs": [],
      "name": "owner",
      "outputs": [
        {
          "internalType": "address",
          "name": "",
          "type": "address"
        }
      ],
      "payable": false,
      "stateMutability": "view",
      "type": "function"
    },
    {
      "constant": true,
      "inputs": [
        {
          "internalType": "string",
          "name": "",
          "type": "string"
        }
      ],
      "name": "products",
      "outputs": [
        {
          "internalType": "uint256",
          "name": "",
          "type": "uint256"
        }
      ],
      "payable": false,
      "stateMutability": "view",
      "type": "function"
    },
    {
      "constant": true,
      "inputs": [
        {
          "internalType": "bytes32",
          "name": "",
          "type": "bytes32"
        }
      ],
      "name": "promocodes",
      "outputs": [
        {
          "internalType": "uint256",
          "name": "",
          "type": "uint256"
        }
      ],
      "payable": false,
      "stateMutability": "view",
      "type": "function"
    },
    {
      "constant": true,
      "inputs": [
        {
          "internalType": "address",
          "name": "",
          "type": "address"
        },
        {
          "internalType": "uint256",
          "name": "",
          "type": "uint256"
        }
      ],
      "name": "purchased",
      "outputs": [
        {
          "internalType": "string",
          "name": "",
          "type": "string"
        }
      ],
      "payable": false,
      "stateMutability": "view",
      "type": "function"
    },
    {
      "constant": true,
      "inputs": [
        {
          "internalType": "address",
          "name": "",
          "type": "address"
        }
      ],
      "name": "users",
      "outputs": [
        {
          "internalType": "string",
          "name": "nickname",
          "type": "string"
        },
        {
          "internalType": "address",
          "name": "wallet",
          "type": "address"
        },
        {
          "internalType": "uint256",
          "name": "balance",
          "type": "uint256"
        },
        {
          "internalType": "string",
          "name": "role",
          "type": "string"
        },
        {
          "internalType": "uint256",
          "name": "register",
          "type": "uint256"
        }
      ],
      "payable": false,
      "stateMutability": "view",
      "type": "function"
    },
    {
      "constant": true,
      "inputs": [],
      "name": "znToken",
      "outputs": [
        {
          "internalType": "contract ZNToken",
          "name": "",
          "type": "address"
        }
      ],
      "payable": false,
      "stateMutability": "view",
      "type": "function"
    },
    {
      "constant": false,
      "inputs": [],
      "name": "deposit",
      "outputs": [],
      "payable": true,
      "stateMutability": "payable",
      "type": "function"
    },
    {
      "constant": false,
      "inputs": [
        {
          "internalType": "bytes32",
          "name": "_promocode",
          "type": "bytes32"
        }
      ],
      "name": "isExist",
      "outputs": [
        {
          "internalType": "uint256",
          "name": "",
          "type": "uint256"
        }
      ],
      "payable": false,
      "stateMutability": "nonpayable",
      "type": "function"
    },
    {
      "constant": false,
      "inputs": [
        {
          "internalType": "address",
          "name": "_wallet",
          "type": "address"
        }
      ],
      "name": "isRegister",
      "outputs": [
        {
          "internalType": "bool",
          "name": "",
          "type": "bool"
        }
      ],
      "payable": false,
      "stateMutability": "nonpayable",
      "type": "function"
    },
    {
      "constant": false,
      "inputs": [
        {
          "internalType": "address",
          "name": "_wallet",
          "type": "address"
        }
      ],
      "name": "isAdmin",
      "outputs": [
        {
          "internalType": "bool",
          "name": "",
          "type": "bool"
        }
      ],
      "payable": false,
      "stateMutability": "nonpayable",
      "type": "function"
    },
    {
      "constant": false,
      "inputs": [
        {
          "internalType": "string",
          "name": "_nickname",
          "type": "string"
        },
        {
          "internalType": "string",
          "name": "_role",
          "type": "string"
        }
      ],
      "name": "register",
      "outputs": [],
      "payable": false,
      "stateMutability": "nonpayable",
      "type": "function"
    },
    {
      "constant": false,
      "inputs": [
        {
          "internalType": "string",
          "name": "_name",
          "type": "string"
        },
        {
          "internalType": "uint256",
          "name": "_price",
          "type": "uint256"
        }
      ],
      "name": "createProduct",
      "outputs": [
        {
          "internalType": "uint256",
          "name": "",
          "type": "uint256"
        }
      ],
      "payable": false,
      "stateMutability": "nonpayable",
      "type": "function"
    },
    {
      "constant": false,
      "inputs": [
        {
          "internalType": "uint256",
          "name": "_amount",
          "type": "uint256"
        }
      ],
      "name": "getPromocode",
      "outputs": [
        {
          "internalType": "bytes32",
          "name": "",
          "type": "bytes32"
        }
      ],
      "payable": false,
      "stateMutability": "nonpayable",
      "type": "function"
    },
    {
      "constant": false,
      "inputs": [
        {
          "internalType": "string",
          "name": "_name",
          "type": "string"
        },
        {
          "internalType": "bytes32",
          "name": "_promocode",
          "type": "bytes32"
        }
      ],
      "name": "addProductToCart",
      "outputs": [],
      "payable": false,
      "stateMutability": "nonpayable",
      "type": "function"
    },
    {
      "constant": false,
      "inputs": [],
      "name": "buyProducts",
      "outputs": [],
      "payable": false,
      "stateMutability": "nonpayable",
      "type": "function"
    },
    {
      "constant": false,
      "inputs": [
        {
          "internalType": "address",
          "name": "_wallet",
          "type": "address"
        }
      ],
      "name": "summCart",
      "outputs": [
        {
          "internalType": "uint256",
          "name": "",
          "type": "uint256"
        }
      ],
      "payable": false,
      "stateMutability": "nonpayable",
      "type": "function"
    }
  ],
  "bytecode": "0x60806040523480156200001157600080fd5b506040516200234b3803806200234b833981810160405260208110156200003757600080fd5b8101908080519060200190929190505050336000806101000a81548173ffffffffffffffffffffffffffffffffffffffff021916908373ffffffffffffffffffffffffffffffffffffffff16021790555080600160006101000a81548173ffffffffffffffffffffffffffffffffffffffff021916908373ffffffffffffffffffffffffffffffffffffffff16021790555060606040518060c001604052806040518060400160405280600581526020017f61646d696e00000000000000000000000000000000000000000000000000000081525081526020013373ffffffffffffffffffffffffffffffffffffffff168152602001620493e081526020018281526020016040518060400160405280600581526020017f61646d696e00000000000000000000000000000000000000000000000000000081525081526020016001815250600260003373ffffffffffffffffffffffffffffffffffffffff1673ffffffffffffffffffffffffffffffffffffffff1681526020019081526020016000206000820151816000019080519060200190620001d99291906200034c565b5060208201518160010160006101000a81548173ffffffffffffffffffffffffffffffffffffffff021916908373ffffffffffffffffffffffffffffffffffffffff16021790555060408201518160020155606082015181600301908051906020019062000249929190620003d3565b506080820151816004019080519060200190620002689291906200034c565b5060a082015181600501559050506064600460405180807f70726f64203100000000000000000000000000000000000000000000000000008152506006019050908152602001604051809103902081905550610190600460405180807f70726f642032000000000000000000000000000000000000000000000000000081525060060190509081526020016040518091039020819055506107d0600460405180807f666c61670000000000000000000000000000000000000000000000000000000081525060040190509081526020016040518091039020819055505050620004df565b828054600181600116156101000203166002900490600052602060002090601f016020900481019282601f106200038f57805160ff1916838001178555620003c0565b82800160010185558215620003c0579182015b82811115620003bf578251825591602001919060010190620003a2565b5b509050620003cf91906200043a565b5090565b82805482825590600052602060002090810192821562000427579160200282015b8281111562000426578251829080519060200190620004159291906200034c565b5091602001919060010190620003f4565b5b50905062000436919062000462565b5090565b6200045f91905b808211156200045b57600081600090555060010162000441565b5090565b90565b6200049091905b808211156200048c576000818162000482919062000493565b5060010162000469565b5090565b90565b50805460018160011615610100020316600290046000825580601f10620004bb5750620004dc565b601f016020900490600052602060002090810190620004db91906200043a565b5b50565b611e5c80620004ef6000396000f3fe6080604052600436106101095760003560e01c8063a87430ba11610095578063e597ef1211610064578063e597ef1214610877578063e9300c6c1461094b578063eaef9af114610a31578063ebbbdcaf14610b03578063edf81d0a14610b6857610109565b8063a87430ba14610658578063bc605f95146107cf578063cf23810e1461081e578063d0e30db01461086d57610109565b80633ffbd47f116100dc5780633ffbd47f1461031357806370a0823114610472578063762fee18146104d75780638b1a2d52146105265780638da5cb5b1461060157610109565b80630186a4231461010e57806322fdef94146101ea57806324d7806c146102535780633d6d8e27146102bc575b600080fd5b34801561011a57600080fd5b506101d46004803603602081101561013157600080fd5b810190808035906020019064010000000081111561014e57600080fd5b82018360208201111561016057600080fd5b8035906020019184600183028401116401000000008311171561018257600080fd5b91908080601f016020809104026020016040519081016040528093929190818152602001838380828437600081840152601f19601f820116905080830192505050505050509192919290505050610b7f565b6040518082815260200191505060405180910390f35b3480156101f657600080fd5b506102396004803603602081101561020d57600080fd5b81019080803573ffffffffffffffffffffffffffffffffffffffff169060200190929190505050610bad565b604051808215151515815260200191505060405180910390f35b34801561025f57600080fd5b506102a26004803603602081101561027657600080fd5b81019080803573ffffffffffffffffffffffffffffffffffffffff169060200190929190505050610c58565b604051808215151515815260200191505060405180910390f35b3480156102c857600080fd5b506102d1610d75565b604051808273ffffffffffffffffffffffffffffffffffffffff1673ffffffffffffffffffffffffffffffffffffffff16815260200191505060405180910390f35b34801561031f57600080fd5b506104706004803603604081101561033657600080fd5b810190808035906020019064010000000081111561035357600080fd5b82018360208201111561036557600080fd5b8035906020019184600183028401116401000000008311171561038757600080fd5b91908080601f016020809104026020016040519081016040528093929190818152602001838380828437600081840152601f19601f820116905080830192505050505050509192919290803590602001906401000000008111156103ea57600080fd5b8201836020820111156103fc57600080fd5b8035906020019184600183028401116401000000008311171561041e57600080fd5b91908080601f016020809104026020016040519081016040528093929190818152602001838380828437600081840152601f19601f820116905080830192505050505050509192919290505050610d9b565b005b34801561047e57600080fd5b506104c16004803603602081101561049557600080fd5b81019080803573ffffffffffffffffffffffffffffffffffffffff169060200190929190505050610edb565b6040518082815260200191505060405180910390f35b3480156104e357600080fd5b50610510600480360360208110156104fa57600080fd5b8101908080359060200190929190505050610ef3565b6040518082815260200191505060405180910390f35b34801561053257600080fd5b5061057f6004803603604081101561054957600080fd5b81019080803573ffffffffffffffffffffffffffffffffffffffff16906020019092919080359060200190929190505050610f10565b6040518080602001838152602001828103825284818151815260200191508051906020019080838360005b838110156105c55780820151818401526020810190506105aa565b50505050905090810190601f1680156105f25780820380516001836020036101000a031916815260200191505b50935050505060405180910390f35b34801561060d57600080fd5b50610616610fe6565b604051808273ffffffffffffffffffffffffffffffffffffffff1673ffffffffffffffffffffffffffffffffffffffff16815260200191505060405180910390f35b34801561066457600080fd5b506106a76004803603602081101561067b57600080fd5b81019080803573ffffffffffffffffffffffffffffffffffffffff16906020019092919050505061100b565b60405180806020018673ffffffffffffffffffffffffffffffffffffffff1673ffffffffffffffffffffffffffffffffffffffff16815260200185815260200180602001848152602001838103835288818151815260200191508051906020019080838360005b8381101561072957808201518184015260208101905061070e565b50505050905090810190601f1680156107565780820380516001836020036101000a031916815260200191505b50838103825285818151815260200191508051906020019080838360005b8381101561078f578082015181840152602081019050610774565b50505050905090810190601f1680156107bc5780820380516001836020036101000a031916815260200191505b5097505050505050505060405180910390f35b3480156107db57600080fd5b50610808600480360360208110156107f257600080fd5b8101908080359060200190929190505050611191565b6040518082815260200191505060405180910390f35b34801561082a57600080fd5b506108576004803603602081101561084157600080fd5b81019080803590602001909291905050506111a9565b6040518082815260200191505060405180910390f35b6108756112c8565b005b34801561088357600080fd5b506108d06004803603604081101561089a57600080fd5b81019080803573ffffffffffffffffffffffffffffffffffffffff16906020019092919080359060200190929190505050611367565b6040518080602001828103825283818151815260200191508051906020019080838360005b838110156109105780820151818401526020810190506108f5565b50505050905090810190601f16801561093d5780820380516001836020036101000a031916815260200191505b509250505060405180910390f35b34801561095757600080fd5b50610a1b6004803603604081101561096e57600080fd5b810190808035906020019064010000000081111561098b57600080fd5b82018360208201111561099d57600080fd5b803590602001918460018302840111640100000000831117156109bf57600080fd5b91908080601f016020809104026020016040519081016040528093929190818152602001838380828437600081840152601f19601f8201169050808301925050505050505091929192908035906020019092919050505061142d565b6040518082815260200191505060405180910390f35b348015610a3d57600080fd5b50610b0160048036036040811015610a5457600080fd5b8101908080359060200190640100000000811115610a7157600080fd5b820183602082011115610a8357600080fd5b80359060200191846001830284011164010000000083111715610aa557600080fd5b91908080601f016020809104026020016040519081016040528093929190818152602001838380828437600081840152601f19601f82011690508083019250505050505050919291929080359060200190929190505050611625565b005b348015610b0f57600080fd5b50610b5260048036036020811015610b2657600080fd5b81019080803573ffffffffffffffffffffffffffffffffffffffff169060200190929190505050611768565b6040518082815260200191505060405180910390f35b348015610b7457600080fd5b50610b7d6118f7565b005b6004818051602081018201805184825260208301602085012081835280955050505050506000915090505481565b60003373ffffffffffffffffffffffffffffffffffffffff16600260003373ffffffffffffffffffffffffffffffffffffffff1673ffffffffffffffffffffffffffffffffffffffff16815260200190815260200160002060010160009054906101000a900473ffffffffffffffffffffffffffffffffffffffff1673ffffffffffffffffffffffffffffffffffffffff161415610c4e5760019050610c53565b600090505b919050565b600060405160200180807f61646d696e000000000000000000000000000000000000000000000000000000815250600501905060405160208183030381529060405280519060200120600260003373ffffffffffffffffffffffffffffffffffffffff1673ffffffffffffffffffffffffffffffffffffffff1681526020019081526020016000206004016040516020018082805460018160011615610100020316600290048015610d415780601f10610d1f576101008083540402835291820191610d41565b820191906000526020600020905b815481529060010190602001808311610d2d575b5050915050604051602081830303815290604052805190602001201415610d6b5760019050610d70565b600090505b919050565b600160009054906101000a900473ffffffffffffffffffffffffffffffffffffffff1681565b60606040518060c001604052808481526020013373ffffffffffffffffffffffffffffffffffffffff168152602001600081526020018281526020018381526020016001815250600260003373ffffffffffffffffffffffffffffffffffffffff1673ffffffffffffffffffffffffffffffffffffffff1681526020019081526020016000206000820151816000019080519060200190610e3d929190611c14565b5060208201518160010160006101000a81548173ffffffffffffffffffffffffffffffffffffffff021916908373ffffffffffffffffffffffffffffffffffffffff160217905550604082015181600201556060820151816003019080519060200190610eab929190611c94565b506080820151816004019080519060200190610ec8929190611c14565b5060a08201518160050155905050505050565b60076020528060005260406000206000915090505481565b600060056000838152602001908152602001600020549050919050565b60036020528160005260406000208181548110610f2957fe5b906000526020600020906002020160009150915050806000018054600181600116156101000203166002900480601f016020809104026020016040519081016040528092919081815260200182805460018160011615610100020316600290048015610fd65780601f10610fab57610100808354040283529160200191610fd6565b820191906000526020600020905b815481529060010190602001808311610fb957829003601f168201915b5050505050908060010154905082565b6000809054906101000a900473ffffffffffffffffffffffffffffffffffffffff1681565b6002602052806000526040600020600091509050806000018054600181600116156101000203166002900480601f0160208091040260200160405190810160405280929190818152602001828054600181600116156101000203166002900480156110b75780601f1061108c576101008083540402835291602001916110b7565b820191906000526020600020905b81548152906001019060200180831161109a57829003601f168201915b5050505050908060010160009054906101000a900473ffffffffffffffffffffffffffffffffffffffff1690806002015490806004018054600181600116156101000203166002900480601f0160208091040260200160405190810160405280929190818152602001828054600181600116156101000203166002900480156111815780601f1061115657610100808354040283529160200191611181565b820191906000526020600020905b81548152906001019060200180831161116457829003601f168201915b5050505050908060050154905085565b60056020528060005260406000206000915090505481565b6000600260003373ffffffffffffffffffffffffffffffffffffffff1673ffffffffffffffffffffffffffffffffffffffff168152602001908152602001600020600401604051602001808280546001816001161561010002031660029004801561124b5780601f1061122957610100808354040283529182019161124b565b820191906000526020600020905b815481529060010190602001808311611237575b50509150506040516020818303038152906040528051906020012060405160200180807f61646d696e000000000000000000000000000000000000000000000000000000815250600501905060405160208183030381529060405280519060200120146112b757600080fd5b6112c18233611b9e565b9050919050565b34600760003373ffffffffffffffffffffffffffffffffffffffff1673ffffffffffffffffffffffffffffffffffffffff1681526020019081526020016000206000828254019250508190555034600260003373ffffffffffffffffffffffffffffffffffffffff1673ffffffffffffffffffffffffffffffffffffffff16815260200190815260200160002060020160008282540192505081905550565b6006602052816000526040600020818154811061138057fe5b90600052602060002001600091509150508054600181600116156101000203166002900480601f0160208091040260200160405190810160405280929190818152602001828054600181600116156101000203166002900480156114255780601f106113fa57610100808354040283529160200191611425565b820191906000526020600020905b81548152906001019060200180831161140857829003601f168201915b505050505081565b6000600260003373ffffffffffffffffffffffffffffffffffffffff1673ffffffffffffffffffffffffffffffffffffffff16815260200190815260200160002060040160405160200180828054600181600116156101000203166002900480156114cf5780601f106114ad5761010080835404028352918201916114cf565b820191906000526020600020905b8154815290600101906020018083116114bb575b50509150506040516020818303038152906040528051906020012060405160200180807f61646d696e0000000000000000000000000000000000000000000000000000008152506005019050604051602081830303815290604052805190602001201461153b57600080fd5b60006004846040518082805190602001908083835b602083106115735780518252602082019150602081019050602083039250611550565b6001836020036101000a038019825116818451168082178552505050505050905001915050908152602001604051809103902054146115b157600080fd5b816004846040518082805190602001908083835b602083106115e857805182526020820191506020810190506020830392506115c5565b6001836020036101000a03801982511681845116808217855250505050505090500191505090815260200160405180910390208190555092915050565b60006005600083815260200190815260200160002054905060006004846040518082805190602001908083835b602083106116755780518252602082019150602081019050602083039250611652565b6001836020036101000a03801982511681845116808217855250505050505090500191505090815260200160405180910390205490506116b3611cf4565b60405180604001604052808681526020018484038152509050600360003373ffffffffffffffffffffffffffffffffffffffff1673ffffffffffffffffffffffffffffffffffffffff16815260200190815260200160002081908060018154018082558091505090600182039060005260206000209060020201600090919290919091506000820151816000019080519060200190611753929190611c14565b50602082015181600101555050505050505050565b600080600090506060600360008573ffffffffffffffffffffffffffffffffffffffff1673ffffffffffffffffffffffffffffffffffffffff168152602001908152602001600020805480602002602001604051908101604052809291908181526020016000905b828210156118ae5783829060005260206000209060020201604051806040016040529081600082018054600181600116156101000203166002900480601f01602080910402602001604051908101604052809291908181526020018280546001816001161561010002031660029004801561188c5780601f106118615761010080835404028352916020019161188c565b820191906000526020600020905b81548152906001019060200180831161186f57829003601f168201915b50505050508152602001600182015481525050815260200190600101906117d0565b50505050905060008090505b81518110156118ec578181815181106118cf57fe5b6020026020010151602001518301925080806001019150506118ba565b508192505050919050565b61190033611768565b600260003373ffffffffffffffffffffffffffffffffffffffff1673ffffffffffffffffffffffffffffffffffffffff16815260200190815260200160002060020154101561194e57600080fd5b61195733611768565b600260003373ffffffffffffffffffffffffffffffffffffffff1673ffffffffffffffffffffffffffffffffffffffff168152602001908152602001600020600201600082825403925050819055506060600360003373ffffffffffffffffffffffffffffffffffffffff1673ffffffffffffffffffffffffffffffffffffffff168152602001908152602001600020805480602002602001604051908101604052809291908181526020016000905b82821015611ae55783829060005260206000209060020201604051806040016040529081600082018054600181600116156101000203166002900480601f016020809104026020016040519081016040528092919081815260200182805460018160011615610100020316600290048015611ac35780601f10611a9857610100808354040283529160200191611ac3565b820191906000526020600020905b815481529060010190602001808311611aa657829003601f168201915b5050505050815260200160018201548152505081526020019060010190611a07565b50505050905060008090505b8151811015611b9a57600660003373ffffffffffffffffffffffffffffffffffffffff1673ffffffffffffffffffffffffffffffffffffffff168152602001908152602001600020828281518110611b4557fe5b6020026020010151600001519080600181540180825580915050906001820390600052602060002001600090919290919091509080519060200190611b8b929190611d0e565b50508080600101915050611af1565b5050565b60006103e8831115611baf57600080fd5b60008273ffffffffffffffffffffffffffffffffffffffff168401604051602001808281526020019150506040516020818303038152906040528051906020012090508360056000838152602001908152602001600020819055508091505092915050565b828054600181600116156101000203166002900490600052602060002090601f016020900481019282601f10611c5557805160ff1916838001178555611c83565b82800160010185558215611c83579182015b82811115611c82578251825591602001919060010190611c67565b5b509050611c909190611d8e565b5090565b828054828255906000526020600020908101928215611ce3579160200282015b82811115611ce2578251829080519060200190611cd2929190611c14565b5091602001919060010190611cb4565b5b509050611cf09190611db3565b5090565b604051806040016040528060608152602001600081525090565b828054600181600116156101000203166002900490600052602060002090601f016020900481019282601f10611d4f57805160ff1916838001178555611d7d565b82800160010185558215611d7d579182015b82811115611d7c578251825591602001919060010190611d61565b5b509050611d8a9190611d8e565b5090565b611db091905b80821115611dac576000816000905550600101611d94565b5090565b90565b611ddc91905b80821115611dd85760008181611dcf9190611ddf565b50600101611db9565b5090565b90565b50805460018160011615610100020316600290046000825580601f10611e055750611e24565b601f016020900490600052602060002090810190611e239190611d8e565b5b5056fea265627a7a7231582074f87c921699808da88a82336c2a774e18cf40e198ffde1053357e9da7d5bb2464736f6c63430005100032",
  "source": "pragma solidity ^0.5.0;\n//pragma experimental ABIEncoderV2;\nimport './ZNToken.sol';\n\ncontract ShopContract {\n\n    address public owner;\n    ZNToken public znToken;\n    struct User {\n        string nickname;\n        address wallet;\n        uint balance;\n        string[] purchased;\n        string role;\n        uint register;\n    }\n\n    struct Product {\n        string name;\n        uint price;\n    }\n\n\n    mapping(address => User) public users;\n    mapping(address => Product[]) public carts;\n    mapping(string => uint) public products;\n    mapping(bytes32 => uint) public promocodes;\n    mapping(address => string[]) public purchased;\n    mapping(address => uint) public balanceOf;\n\n    constructor(ZNToken _znToken) public {\n        owner = msg.sender;\n        znToken = _znToken;\n        string[] memory _a;\n        users[msg.sender] = User(\"admin\", msg.sender, 300000, _a, \"admin\", 1);\n        products[\"prod 1\"] = 100;\n        products[\"prod 2\"] = 400;\n        products[\"flag\"] = 2000;\n    }\n\n    function deposit() public payable {\n        balanceOf[msg.sender] += msg.value;\n        users[msg.sender].balance += msg.value;\n    }\n\n    function isExist(bytes32 _promocode) public returns (uint) {\n        return promocodes[_promocode];\n    }\n\n    modifier onlyOwner() {\n        require(msg.sender == owner);\n        _;\n    }\n\n    modifier onlyAdmin() {\n        require(keccak256(abi.encodePacked(\"admin\")) == keccak256(abi.encodePacked(users[msg.sender].role)));\n        _;\n    }\n\n    function isRegister(address _wallet) public returns (bool){\n        if(users[msg.sender].wallet == msg.sender) {\n            return true;\n        }\n\n        return false;\n    }\n\n    function isAdmin(address _wallet) public returns (bool) {\n        if(keccak256(abi.encodePacked(users[msg.sender].role)) == keccak256(abi.encodePacked(\"admin\"))) {\n            return true;\n        }\n\n        return false;\n    }\n\n    function register(string memory _nickname, string memory _role) public {\n        string[] memory _cart;\n        users[msg.sender] = User(_nickname, msg.sender, 0, _cart, _role, 1);\n    }\n\n    function createProduct(string memory _name, uint _price) public onlyAdmin returns(uint) {\n        require(products[_name] == 0);\n        products[_name] = _price;\n    }\n\n    function getPromocode(uint _amount) public onlyAdmin returns (bytes32) {\n        return generatePromocode(_amount, msg.sender);\n        \n    }\n\n    function generatePromocode(uint _amount, address _wallet) private returns (bytes32) {\n        require(_amount <= 1000);\n        bytes32 promocode = keccak256(abi.encodePacked(_amount + uint(_wallet)));\n        promocodes[promocode] = _amount;\n        return promocode;\n    }\n\n    function addProductToCart(string memory _name, bytes32 _promocode) public {\n        uint discount = promocodes[_promocode];\n        uint price = products[_name];\n        Product memory product = Product(_name, price - discount);\n        carts[msg.sender].push(product);\n    }\n\n    function buyProducts() public {\n        require(users[msg.sender].balance >= summCart(msg.sender));\n        //ZNToken.transfer(owner, sumCart(msg.sender));\n        users[msg.sender].balance -= summCart(msg.sender);\n        Product[] memory _products = carts[msg.sender];\n        for (uint i = 0; i < _products.length; i++) {\n            purchased[msg.sender].push(_products[i].name);\n        }\n    }\n\n    function summCart(address _wallet) public returns (uint) {\n        uint sum = 0;\n        Product[] memory _products = carts[_wallet];\n        for(uint i = 0; i < _products.length; i++) {\n            sum += _products[i].price;\n        }\n        return sum;\n    }\n\n    // function balanceOf(address) public returns(uint) {\n    //     return users[msg.sender].balance;\n    // }\n}\n\n//    private(       ())",
  "sourcePath": "/home/yegor/Desktop/code/zeronights/defi_tutorial/src/contracts/ShopContract.sol",
  "compiler": {
    "name": "solc",
    "version": "0.5.16+commit.9c3226ce.Emscripten.clang"
  },
  "schemaVersion": "3.2.3",
  "updatedAt": "2021-06-10T17:04:50.984Z",
  "networkType": "ethereum",
  "devdoc": {
    "methods": {}
  },
  "userdoc": {
    "methods": {}
  }
}