{
  "contractName": "ShopContract",
  "abi": [
    {
      "inputs": [],
      "payable": false,
      "stateMutability": "nonpayable",
      "type": "constructor"
    },
    {
      "constant": true,
      "inputs": [
        {
          "internalType": "address",
          "name": "",
          "type": "address"
        }
      ],
      "name": "balanceOf",
      "outputs": [
        {
          "internalType": "uint256",
          "name": "",
          "type": "uint256"
        }
      ],
      "payable": false,
      "stateMutability": "view",
      "type": "function"
    },
    {
      "constant": true,
      "inputs": [
        {
          "internalType": "address",
          "name": "",
          "type": "address"
        },
        {
          "internalType": "uint256",
          "name": "",
          "type": "uint256"
        }
      ],
      "name": "carts",
      "outputs": [
        {
          "internalType": "string",
          "name": "name",
          "type": "string"
        },
        {
          "internalType": "uint256",
          "name": "price",
          "type": "uint256"
        }
      ],
      "payable": false,
      "stateMutability": "view",
      "type": "function"
    },
    {
      "constant": true,
      "inputs": [],
      "name": "owner",
      "outputs": [
        {
          "internalType": "address",
          "name": "",
          "type": "address"
        }
      ],
      "payable": false,
      "stateMutability": "view",
      "type": "function"
    },
    {
      "constant": true,
      "inputs": [
        {
          "internalType": "string",
          "name": "",
          "type": "string"
        }
      ],
      "name": "products",
      "outputs": [
        {
          "internalType": "uint256",
          "name": "",
          "type": "uint256"
        }
      ],
      "payable": false,
      "stateMutability": "view",
      "type": "function"
    },
    {
      "constant": true,
      "inputs": [
        {
          "internalType": "bytes32",
          "name": "",
          "type": "bytes32"
        }
      ],
      "name": "promocodes",
      "outputs": [
        {
          "internalType": "uint256",
          "name": "",
          "type": "uint256"
        }
      ],
      "payable": false,
      "stateMutability": "view",
      "type": "function"
    },
    {
      "constant": true,
      "inputs": [
        {
          "internalType": "address",
          "name": "",
          "type": "address"
        },
        {
          "internalType": "uint256",
          "name": "",
          "type": "uint256"
        }
      ],
      "name": "purchased",
      "outputs": [
        {
          "internalType": "string",
          "name": "",
          "type": "string"
        }
      ],
      "payable": false,
      "stateMutability": "view",
      "type": "function"
    },
    {
      "constant": true,
      "inputs": [
        {
          "internalType": "address",
          "name": "",
          "type": "address"
        }
      ],
      "name": "users",
      "outputs": [
        {
          "internalType": "string",
          "name": "nickname",
          "type": "string"
        },
        {
          "internalType": "address",
          "name": "wallet",
          "type": "address"
        },
        {
          "internalType": "string",
          "name": "role",
          "type": "string"
        },
        {
          "internalType": "uint256",
          "name": "register",
          "type": "uint256"
        }
      ],
      "payable": false,
      "stateMutability": "view",
      "type": "function"
    },
    {
      "constant": false,
      "inputs": [],
      "name": "getCart",
      "outputs": [
        {
          "components": [
            {
              "internalType": "string",
              "name": "name",
              "type": "string"
            },
            {
              "internalType": "uint256",
              "name": "price",
              "type": "uint256"
            }
          ],
          "internalType": "struct ShopContract.Product[]",
          "name": "",
          "type": "tuple[]"
        }
      ],
      "payable": false,
      "stateMutability": "nonpayable",
      "type": "function"
    },
    {
      "constant": false,
      "inputs": [],
      "name": "getPurchased",
      "outputs": [
        {
          "internalType": "string[]",
          "name": "",
          "type": "string[]"
        }
      ],
      "payable": false,
      "stateMutability": "nonpayable",
      "type": "function"
    },
    {
      "constant": false,
      "inputs": [],
      "name": "deposit",
      "outputs": [],
      "payable": true,
      "stateMutability": "payable",
      "type": "function"
    },
    {
      "constant": false,
      "inputs": [],
      "name": "isRegister",
      "outputs": [
        {
          "internalType": "bool",
          "name": "",
          "type": "bool"
        }
      ],
      "payable": false,
      "stateMutability": "nonpayable",
      "type": "function"
    },
    {
      "constant": false,
      "inputs": [],
      "name": "isAdmin",
      "outputs": [
        {
          "internalType": "bool",
          "name": "",
          "type": "bool"
        }
      ],
      "payable": false,
      "stateMutability": "nonpayable",
      "type": "function"
    },
    {
      "constant": false,
      "inputs": [
        {
          "internalType": "bytes32",
          "name": "_promocode",
          "type": "bytes32"
        }
      ],
      "name": "isExist",
      "outputs": [
        {
          "internalType": "uint256",
          "name": "",
          "type": "uint256"
        }
      ],
      "payable": false,
      "stateMutability": "nonpayable",
      "type": "function"
    },
    {
      "constant": false,
      "inputs": [
        {
          "internalType": "string",
          "name": "_nickname",
          "type": "string"
        },
        {
          "internalType": "string",
          "name": "_role",
          "type": "string"
        }
      ],
      "name": "register",
      "outputs": [],
      "payable": false,
      "stateMutability": "nonpayable",
      "type": "function"
    },
    {
      "constant": false,
      "inputs": [
        {
          "internalType": "string",
          "name": "_name",
          "type": "string"
        },
        {
          "internalType": "uint256",
          "name": "_price",
          "type": "uint256"
        }
      ],
      "name": "createProduct",
      "outputs": [
        {
          "internalType": "uint256",
          "name": "",
          "type": "uint256"
        }
      ],
      "payable": false,
      "stateMutability": "nonpayable",
      "type": "function"
    },
    {
      "constant": false,
      "inputs": [
        {
          "internalType": "uint256",
          "name": "_amount",
          "type": "uint256"
        }
      ],
      "name": "getPromocode",
      "outputs": [
        {
          "internalType": "bytes32",
          "name": "",
          "type": "bytes32"
        }
      ],
      "payable": false,
      "stateMutability": "nonpayable",
      "type": "function"
    },
    {
      "constant": false,
      "inputs": [
        {
          "internalType": "uint256",
          "name": "_amount",
          "type": "uint256"
        },
        {
          "internalType": "address",
          "name": "_wallet",
          "type": "address"
        }
      ],
      "name": "generatePromocode",
      "outputs": [
        {
          "internalType": "bytes32",
          "name": "",
          "type": "bytes32"
        }
      ],
      "payable": false,
      "stateMutability": "nonpayable",
      "type": "function"
    },
    {
      "constant": false,
      "inputs": [
        {
          "internalType": "string",
          "name": "_name",
          "type": "string"
        },
        {
          "internalType": "bytes32",
          "name": "_promocode",
          "type": "bytes32"
        }
      ],
      "name": "addProductToCart",
      "outputs": [],
      "payable": false,
      "stateMutability": "nonpayable",
      "type": "function"
    },
    {
      "constant": false,
      "inputs": [],
      "name": "buyProducts",
      "outputs": [],
      "payable": false,
      "stateMutability": "nonpayable",
      "type": "function"
    },
    {
      "constant": false,
      "inputs": [
        {
          "internalType": "address",
          "name": "_wallet",
          "type": "address"
        }
      ],
      "name": "summCart",
      "outputs": [
        {
          "internalType": "uint256",
          "name": "",
          "type": "uint256"
        }
      ],
      "payable": false,
      "stateMutability": "nonpayable",
      "type": "function"
    }
  ],
  "bytecode": "0x60806040523480156200001157600080fd5b50336000806101000a81548173ffffffffffffffffffffffffffffffffffffffff021916908373ffffffffffffffffffffffffffffffffffffffff16021790555060606040518060a001604052806040518060400160405280600581526020017f61646d696e00000000000000000000000000000000000000000000000000000081525081526020013373ffffffffffffffffffffffffffffffffffffffff1681526020018281526020016040518060400160405280600581526020017f61646d696e00000000000000000000000000000000000000000000000000000081525081526020016001815250600160003373ffffffffffffffffffffffffffffffffffffffff1673ffffffffffffffffffffffffffffffffffffffff168152602001908152602001600020600082015181600001908051906020019062000159929190620002ad565b5060208201518160010160006101000a81548173ffffffffffffffffffffffffffffffffffffffff021916908373ffffffffffffffffffffffffffffffffffffffff1602179055506040820151816002019080519060200190620001bf92919062000334565b506060820151816003019080519060200190620001de929190620002ad565b5060808201518160040155905050670de0b6b3a7640000600660003373ffffffffffffffffffffffffffffffffffffffff1673ffffffffffffffffffffffffffffffffffffffff16815260200190815260200160002081905550606460046040516200024a906200051d565b90815260200160405180910390208190555061019060046040516200026f9062000506565b9081526020016040518091039020819055506107d06004604051620002949062000534565b9081526020016040518091039020819055505062000556565b828054600181600116156101000203166002900490600052602060002090601f016020900481019282601f10620002f057805160ff191683800117855562000321565b8280016001018555821562000321579182015b828111156200032057825182559160200191906001019062000303565b5b5090506200033091906200039b565b5090565b82805482825590600052602060002090810192821562000388579160200282015b828111156200038757825182908051906020019062000376929190620002ad565b509160200191906001019062000355565b5b509050620003979190620003c3565b5090565b620003c091905b80821115620003bc576000816000905550600101620003a2565b5090565b90565b620003f191905b80821115620003ed5760008181620003e39190620003f4565b50600101620003ca565b5090565b90565b50805460018160011615610100020316600290046000825580601f106200041c57506200043d565b601f0160209004906000526020600020908101906200043c91906200039b565b5b50565b60006200044f6006836200054b565b91507f70726f64203200000000000000000000000000000000000000000000000000006000830152600682019050919050565b6000620004916006836200054b565b91507f70726f64203100000000000000000000000000000000000000000000000000006000830152600682019050919050565b6000620004d36004836200054b565b91507f666c6167000000000000000000000000000000000000000000000000000000006000830152600482019050919050565b6000620005138262000440565b9150819050919050565b60006200052a8262000482565b9150819050919050565b60006200054182620004c4565b9150819050919050565b600081905092915050565b61229080620005666000396000f3fe60806040526004361061011f5760003560e01c8063a87430ba116100a0578063e597ef1211610064578063e597ef121461041a578063e9300c6c14610457578063eaef9af114610494578063ebbbdcaf146104bd578063edf81d0a146104fa5761011f565b8063a87430ba1461032b578063b6db75a01461036b578063bc605f9514610396578063cf23810e146103d3578063d0e30db0146104105761011f565b806370a08231116100e757806370a082311461021d578063762fee181461025a5780638525f888146102975780638b1a2d52146102c25780638da5cb5b146103005761011f565b80630186a4231461012457806321627dad14610161578063272e6c241461018c5780633d2bd035146101c95780633ffbd47f146101f4575b600080fd5b34801561013057600080fd5b5061014b6004803603610146919081019061197b565b610511565b6040516101589190611fef565b60405180910390f35b34801561016d57600080fd5b5061017661053f565b6040516101839190611ef2565b60405180910390f35b34801561019857600080fd5b506101b360048036036101ae9190810190611af9565b610687565b6040516101c09190611f2f565b60405180910390f35b3480156101d557600080fd5b506101de6106fd565b6040516101eb9190611ed0565b60405180910390f35b34801561020057600080fd5b5061021b60048036036102169190810190611a10565b610823565b005b34801561022957600080fd5b50610244600480360361023f91908101906118ed565b610952565b6040516102519190611fef565b60405180910390f35b34801561026657600080fd5b50610281600480360361027c9190810190611952565b61096a565b60405161028e9190611fef565b60405180910390f35b3480156102a357600080fd5b506102ac610987565b6040516102b99190611f14565b60405180910390f35b3480156102ce57600080fd5b506102e960048036036102e49190810190611916565b610a30565b6040516102f7929190611fbf565b60405180910390f35b34801561030c57600080fd5b50610315610b06565b6040516103229190611eb5565b60405180910390f35b34801561033757600080fd5b50610352600480360361034d91908101906118ed565b610b2b565b6040516103629493929190611f6c565b60405180910390f35b34801561037757600080fd5b50610380610cab565b60405161038d9190611f14565b60405180910390f35b3480156103a257600080fd5b506103bd60048036036103b89190810190611952565b610d51565b6040516103ca9190611fef565b60405180910390f35b3480156103df57600080fd5b506103fa60048036036103f59190810190611ad0565b610d69565b6040516104079190611f2f565b60405180910390f35b610418610e13565b005b34801561042657600080fd5b50610441600480360361043c9190810190611916565b610e62565b60405161044e9190611f4a565b60405180910390f35b34801561046357600080fd5b5061047e60048036036104799190810190611a7c565b610f28565b60405161048b9190611fef565b60405180910390f35b3480156104a057600080fd5b506104bb60048036036104b691908101906119bc565b611015565b005b3480156104c957600080fd5b506104e460048036036104df91908101906118ed565b61110d565b6040516104f19190611fef565b60405180910390f35b34801561050657600080fd5b5061050f61129c565b005b6004818051602081018201805184825260208301602085012081835280955050505050506000915090505481565b6060600260003373ffffffffffffffffffffffffffffffffffffffff1673ffffffffffffffffffffffffffffffffffffffff168152602001908152602001600020805480602002602001604051908101604052809291908181526020016000905b8282101561067e5783829060005260206000209060020201604051806040016040529081600082018054600181600116156101000203166002900480601f01602080910402602001604051908101604052809291908181526020018280546001816001161561010002031660029004801561065c5780601f106106315761010080835404028352916020019161065c565b820191906000526020600020905b81548152906001019060200180831161063f57829003601f168201915b50505050508152602001600182015481525050815260200190600101906105a0565b50505050905090565b60006103e883111561069857600080fd5b60008273ffffffffffffffffffffffffffffffffffffffff1684016040516020016106c39190611e9a565b6040516020818303038152906040528051906020012090508360056000838152602001908152602001600020819055508091505092915050565b6060600360003373ffffffffffffffffffffffffffffffffffffffff1673ffffffffffffffffffffffffffffffffffffffff168152602001908152602001600020805480602002602001604051908101604052809291908181526020016000905b8282101561081a578382906000526020600020018054600181600116156101000203166002900480601f0160208091040260200160405190810160405280929190818152602001828054600181600116156101000203166002900480156108065780601f106107db57610100808354040283529160200191610806565b820191906000526020600020905b8154815290600101906020018083116107e957829003601f168201915b50505050508152602001906001019061075e565b50505050905090565b60606040518060a001604052808481526020013373ffffffffffffffffffffffffffffffffffffffff1681526020018281526020018381526020016001815250600160003373ffffffffffffffffffffffffffffffffffffffff1673ffffffffffffffffffffffffffffffffffffffff16815260200190815260200160002060008201518160000190805190602001906108be92919061158a565b5060208201518160010160006101000a81548173ffffffffffffffffffffffffffffffffffffffff021916908373ffffffffffffffffffffffffffffffffffffffff160217905550604082015181600201908051906020019061092292919061160a565b50606082015181600301908051906020019061093f92919061158a565b5060808201518160040155905050505050565b60066020528060005260406000206000915090505481565b600060056000838152602001908152602001600020549050919050565b60003373ffffffffffffffffffffffffffffffffffffffff16600160003373ffffffffffffffffffffffffffffffffffffffff1673ffffffffffffffffffffffffffffffffffffffff16815260200190815260200160002060010160009054906101000a900473ffffffffffffffffffffffffffffffffffffffff1673ffffffffffffffffffffffffffffffffffffffff161415610a285760019050610a2d565b600090505b90565b60026020528160005260406000208181548110610a4957fe5b906000526020600020906002020160009150915050806000018054600181600116156101000203166002900480601f016020809104026020016040519081016040528092919081815260200182805460018160011615610100020316600290048015610af65780601f10610acb57610100808354040283529160200191610af6565b820191906000526020600020905b815481529060010190602001808311610ad957829003601f168201915b5050505050908060010154905082565b6000809054906101000a900473ffffffffffffffffffffffffffffffffffffffff1681565b6001602052806000526040600020600091509050806000018054600181600116156101000203166002900480601f016020809104026020016040519081016040528092919081815260200182805460018160011615610100020316600290048015610bd75780601f10610bac57610100808354040283529160200191610bd7565b820191906000526020600020905b815481529060010190602001808311610bba57829003601f168201915b5050505050908060010160009054906101000a900473ffffffffffffffffffffffffffffffffffffffff1690806003018054600181600116156101000203166002900480601f016020809104026020016040519081016040528092919081815260200182805460018160011615610100020316600290048015610c9b5780601f10610c7057610100808354040283529160200191610c9b565b820191906000526020600020905b815481529060010190602001808311610c7e57829003601f168201915b5050505050908060040154905084565b6000604051602001610cbc90611e85565b60405160208183030381529060405280519060200120600160003373ffffffffffffffffffffffffffffffffffffffff1673ffffffffffffffffffffffffffffffffffffffff168152602001908152602001600020600301604051602001610d249190611e6e565b604051602081830303815290604052805190602001201415610d495760019050610d4e565b600090505b90565b60056020528060005260406000206000915090505481565b6000600160003373ffffffffffffffffffffffffffffffffffffffff1673ffffffffffffffffffffffffffffffffffffffff168152602001908152602001600020600301604051602001610dbd9190611e6e565b60405160208183030381529060405280519060200120604051602001610de290611e85565b6040516020818303038152906040528051906020012014610e0257600080fd5b610e0c8233610687565b9050919050565b34600660003373ffffffffffffffffffffffffffffffffffffffff1673ffffffffffffffffffffffffffffffffffffffff16815260200190815260200160002060008282540192505081905550565b60036020528160005260406000208181548110610e7b57fe5b90600052602060002001600091509150508054600181600116156101000203166002900480601f016020809104026020016040519081016040528092919081815260200182805460018160011615610100020316600290048015610f205780601f10610ef557610100808354040283529160200191610f20565b820191906000526020600020905b815481529060010190602001808311610f0357829003601f168201915b505050505081565b6000600160003373ffffffffffffffffffffffffffffffffffffffff1673ffffffffffffffffffffffffffffffffffffffff168152602001908152602001600020600301604051602001610f7c9190611e6e565b60405160208183030381529060405280519060200120604051602001610fa190611e85565b6040516020818303038152906040528051906020012014610fc157600080fd5b6000600484604051610fd39190611e57565b90815260200160405180910390205414610fec57600080fd5b81600484604051610ffd9190611e57565b90815260200160405180910390208190555092915050565b600060056000838152602001908152602001600020549050600060048460405161103f9190611e57565b908152602001604051809103902054905061105861166a565b60405180604001604052808681526020018484038152509050600260003373ffffffffffffffffffffffffffffffffffffffff1673ffffffffffffffffffffffffffffffffffffffff168152602001908152602001600020819080600181540180825580915050906001820390600052602060002090600202016000909192909190915060008201518160000190805190602001906110f892919061158a565b50602082015181600101555050505050505050565b600080600090506060600260008573ffffffffffffffffffffffffffffffffffffffff1673ffffffffffffffffffffffffffffffffffffffff168152602001908152602001600020805480602002602001604051908101604052809291908181526020016000905b828210156112535783829060005260206000209060020201604051806040016040529081600082018054600181600116156101000203166002900480601f0160208091040260200160405190810160405280929190818152602001828054600181600116156101000203166002900480156112315780601f1061120657610100808354040283529160200191611231565b820191906000526020600020905b81548152906001019060200180831161121457829003601f168201915b5050505050815260200160018201548152505081526020019060010190611175565b50505050905060008090505b81518110156112915781818151811061127457fe5b60200260200101516020015183019250808060010191505061125f565b508192505050919050565b6112a53361110d565b600660003373ffffffffffffffffffffffffffffffffffffffff1673ffffffffffffffffffffffffffffffffffffffff1681526020019081526020016000205410156112f057600080fd5b6112f93361110d565b600660003373ffffffffffffffffffffffffffffffffffffffff1673ffffffffffffffffffffffffffffffffffffffff168152602001908152602001600020600082825403925050819055506060600260003373ffffffffffffffffffffffffffffffffffffffff1673ffffffffffffffffffffffffffffffffffffffff168152602001908152602001600020805480602002602001604051908101604052809291908181526020016000905b828210156114845783829060005260206000209060020201604051806040016040529081600082018054600181600116156101000203166002900480601f0160208091040260200160405190810160405280929190818152602001828054600181600116156101000203166002900480156114625780601f1061143757610100808354040283529160200191611462565b820191906000526020600020905b81548152906001019060200180831161144557829003601f168201915b50505050508152602001600182015481525050815260200190600101906113a6565b50505050905060008090505b815181101561153957600360003373ffffffffffffffffffffffffffffffffffffffff1673ffffffffffffffffffffffffffffffffffffffff1681526020019081526020016000208282815181106114e457fe5b602002602001015160000151908060018154018082558091505090600182039060005260206000200160009091929091909150908051906020019061152a929190611684565b50508080600101915050611490565b506000600260003373ffffffffffffffffffffffffffffffffffffffff1673ffffffffffffffffffffffffffffffffffffffff168152602001908152602001600020816115869190611704565b5050565b828054600181600116156101000203166002900490600052602060002090601f016020900481019282601f106115cb57805160ff19168380011785556115f9565b828001600101855582156115f9579182015b828111156115f85782518255916020019190600101906115dd565b5b5090506116069190611736565b5090565b828054828255906000526020600020908101928215611659579160200282015b8281111561165857825182908051906020019061164892919061158a565b509160200191906001019061162a565b5b509050611666919061175b565b5090565b604051806040016040528060608152602001600081525090565b828054600181600116156101000203166002900490600052602060002090601f016020900481019282601f106116c557805160ff19168380011785556116f3565b828001600101855582156116f3579182015b828111156116f25782518255916020019190600101906116d7565b5b5090506117009190611736565b5090565b815481835581811115611731576002028160020283600052602060002091820191016117309190611787565b5b505050565b61175891905b8082111561175457600081600090555060010161173c565b5090565b90565b61178491905b80821115611780576000818161177791906117be565b50600101611761565b5090565b90565b6117bb91905b808211156117b757600080820160006117a691906117be565b60018201600090555060020161178d565b5090565b90565b50805460018160011615610100020316600290046000825580601f106117e45750611803565b601f0160209004906000526020600020908101906118029190611736565b5b50565b60008135905061181581612208565b92915050565b60008135905061182a8161221f565b92915050565b600082601f83011261184157600080fd5b813561185461184f82612037565b61200a565b9150808252602083016020830185838301111561187057600080fd5b61187b8382846121ab565b50505092915050565b600082601f83011261189557600080fd5b81356118a86118a382612063565b61200a565b915080825260208301602083018583830111156118c457600080fd5b6118cf8382846121ab565b50505092915050565b6000813590506118e781612236565b92915050565b6000602082840312156118ff57600080fd5b600061190d84828501611806565b91505092915050565b6000806040838503121561192957600080fd5b600061193785828601611806565b9250506020611948858286016118d8565b9150509250929050565b60006020828403121561196457600080fd5b60006119728482850161181b565b91505092915050565b60006020828403121561198d57600080fd5b600082013567ffffffffffffffff8111156119a757600080fd5b6119b384828501611830565b91505092915050565b600080604083850312156119cf57600080fd5b600083013567ffffffffffffffff8111156119e957600080fd5b6119f585828601611884565b9250506020611a068582860161181b565b9150509250929050565b60008060408385031215611a2357600080fd5b600083013567ffffffffffffffff811115611a3d57600080fd5b611a4985828601611884565b925050602083013567ffffffffffffffff811115611a6657600080fd5b611a7285828601611884565b9150509250929050565b60008060408385031215611a8f57600080fd5b600083013567ffffffffffffffff811115611aa957600080fd5b611ab585828601611884565b9250506020611ac6858286016118d8565b9150509250929050565b600060208284031215611ae257600080fd5b6000611af0848285016118d8565b91505092915050565b60008060408385031215611b0c57600080fd5b6000611b1a858286016118d8565b9250506020611b2b85828601611806565b9150509250929050565b6000611b418383611ca5565b905092915050565b6000611b558383611de5565b905092915050565b611b6681612159565b82525050565b6000611b77826120c4565b611b81818561210a565b935083602082028501611b938561208f565b8060005b85811015611bcf5784840389528151611bb08582611b35565b9450611bbb836120f0565b925060208a01995050600181019050611b97565b50829750879550505050505092915050565b6000611bec826120cf565b611bf6818561211b565b935083602082028501611c088561209f565b8060005b85811015611c445784840389528151611c258582611b49565b9450611c30836120fd565b925060208a01995050600181019050611c0c565b50829750879550505050505092915050565b611c5f8161216b565b82525050565b611c6e81612177565b82525050565b6000611c7f826120e5565b611c89818561214e565b9350611c998185602086016121ba565b80840191505092915050565b6000611cb0826120da565b611cba818561212c565b9350611cca8185602086016121ba565b611cd3816121f7565b840191505092915050565b6000611ce9826120da565b611cf3818561213d565b9350611d038185602086016121ba565b611d0c816121f7565b840191505092915050565b600081546001811660008114611d345760018114611d5957611d9d565b607f6002830416611d45818761214e565b955060ff1983168652808601935050611d9d565b60028204611d67818761214e565b9550611d72856120af565b60005b82811015611d9457815481890152600182019150602081019050611d75565b82880195505050505b505092915050565b6000611db260058361214e565b91507f61646d696e0000000000000000000000000000000000000000000000000000006000830152600582019050919050565b60006040830160008301518482036000860152611e028282611ca5565b9150506020830151611e176020860182611e22565b508091505092915050565b611e2b816121a1565b82525050565b611e3a816121a1565b82525050565b611e51611e4c826121a1565b6121ed565b82525050565b6000611e638284611c74565b915081905092915050565b6000611e7a8284611d17565b915081905092915050565b6000611e9082611da5565b9150819050919050565b6000611ea68284611e40565b60208201915081905092915050565b6000602082019050611eca6000830184611b5d565b92915050565b60006020820190508181036000830152611eea8184611b6c565b905092915050565b60006020820190508181036000830152611f0c8184611be1565b905092915050565b6000602082019050611f296000830184611c56565b92915050565b6000602082019050611f446000830184611c65565b92915050565b60006020820190508181036000830152611f648184611cde565b905092915050565b60006080820190508181036000830152611f868187611cde565b9050611f956020830186611b5d565b8181036040830152611fa78185611cde565b9050611fb66060830184611e31565b95945050505050565b60006040820190508181036000830152611fd98185611cde565b9050611fe86020830184611e31565b9392505050565b60006020820190506120046000830184611e31565b92915050565b6000604051905081810181811067ffffffffffffffff8211171561202d57600080fd5b8060405250919050565b600067ffffffffffffffff82111561204e57600080fd5b601f19601f8301169050602081019050919050565b600067ffffffffffffffff82111561207a57600080fd5b601f19601f8301169050602081019050919050565b6000819050602082019050919050565b6000819050602082019050919050565b60008190508160005260206000209050919050565b600081519050919050565b600081519050919050565b600081519050919050565b600081519050919050565b6000602082019050919050565b6000602082019050919050565b600082825260208201905092915050565b600082825260208201905092915050565b600082825260208201905092915050565b600082825260208201905092915050565b600081905092915050565b600061216482612181565b9050919050565b60008115159050919050565b6000819050919050565b600073ffffffffffffffffffffffffffffffffffffffff82169050919050565b6000819050919050565b82818337600083830152505050565b60005b838110156121d85780820151818401526020810190506121bd565b838111156121e7576000848401525b50505050565b6000819050919050565b6000601f19601f8301169050919050565b61221181612159565b811461221c57600080fd5b50565b61222881612177565b811461223357600080fd5b50565b61223f816121a1565b811461224a57600080fd5b5056fea365627a7a7231582074fb8cdb174abd54bbadaf386cf91d94c599ac6cb6d015ea80c8cfff7a32fc836c6578706572696d656e74616cf564736f6c63430005100040",
  "source": "pragma solidity ^0.5.0;\npragma experimental ABIEncoderV2;\n\n\ncontract ShopContract {\n\n    address public owner;\n    struct User {\n        string nickname;\n        address wallet;\n        string[] purchased;\n        string role;\n        uint register;\n    }\n\n    struct Product {\n        string name;\n        uint price;\n    }\n\n\n    mapping(address => User) public users;\n    mapping(address => Product[]) public carts;\n    mapping(address => string[]) public purchased;\n    mapping(string => uint) public products;\n    mapping(bytes32 => uint) public promocodes;\n    mapping(address => uint) public balanceOf;\n\n    constructor() public {\n        owner = msg.sender;\n        string[] memory _a;\n        users[msg.sender] = User(\"admin\", msg.sender, _a, \"admin\", 1);\n        balanceOf[msg.sender] = 1 ether;\n        products[\"prod 1\"] = 100;\n        products[\"prod 2\"] = 400;\n        products[\"flag\"] = 2000;\n    }\n\n    function getCart() public returns (Product[] memory) {\n        return carts[msg.sender];\n    }\n\n    function getPurchased() public returns(string[] memory){\n        return purchased[msg.sender];\n    }\n\n    function deposit() public payable {\n        balanceOf[msg.sender] += msg.value;\n    }\n\n    modifier onlyOwner() {\n        require(msg.sender == owner);\n        _;\n    }\n\n    modifier onlyAdmin() {\n        require(keccak256(abi.encodePacked(\"admin\")) == keccak256(abi.encodePacked(users[msg.sender].role)));\n        _;\n    }\n\n    function isRegister() public returns (bool){\n        if(users[msg.sender].wallet == msg.sender) {\n            return true;\n        }\n        return false;\n    }\n\n    function isAdmin() public returns (bool) {\n        if(keccak256(abi.encodePacked(users[msg.sender].role)) == keccak256(abi.encodePacked(\"admin\"))) {\n            return true;\n        }\n        return false;\n    }\n\n    function isExist(bytes32 _promocode) public returns(uint) {\n        return promocodes[_promocode];\n    }\n\n    function register(string memory _nickname, string memory _role) public {\n        string[] memory _cart;\n        users[msg.sender] = User(_nickname, msg.sender, _cart, _role, 1);\n    }\n\n    function createProduct(string memory _name, uint _price) public onlyAdmin returns(uint) {\n        require(products[_name] == 0);\n        products[_name] = _price;\n    }\n\n    function getPromocode(uint _amount) public onlyAdmin returns (bytes32) {\n        return generatePromocode(_amount, msg.sender);   \n    }\n\n    function generatePromocode(uint _amount, address _wallet) public returns (bytes32) {\n        require(_amount <= 1000);\n        bytes32 promocode = keccak256(abi.encodePacked(_amount + uint(_wallet)));\n        promocodes[promocode] = _amount;\n        return promocode;\n    }\n\n    function addProductToCart(string memory _name, bytes32 _promocode) public {\n        uint discount = promocodes[_promocode];\n        uint price = products[_name];\n        Product memory product = Product(_name, price - discount);\n        carts[msg.sender].push(product);\n    }\n\n    // function getCart() public returns(string memory) {\n    //     Product[] memory products = carts[msg.sender];\n    //     uint len = products.length;\n    //     string memory result;\n    //     for (uint i = 0; i < len; i++) {\n    //         result = products[i].name + \":\" + products[i].price) + \" \"; \n    //     }\n    //     return result;\n    // }\n\n    function buyProducts() public {\n        require(balanceOf[msg.sender] >= summCart(msg.sender));\n        balanceOf[msg.sender] -= summCart(msg.sender);\n        Product[] memory _products = carts[msg.sender];\n        for (uint i = 0; i < _products.length; i++) {\n            purchased[msg.sender].push(_products[i].name);\n        }\n\n        carts[msg.sender].length = 0;\n    }\n\n    function summCart(address _wallet) public returns (uint) {\n        uint sum = 0;\n        Product[] memory _products = carts[_wallet];\n        for(uint i = 0; i < _products.length; i++) {\n            sum += _products[i].price;\n        }\n        return sum;\n    }\n}\n\n//    private(       ())",
  "sourcePath": "/home/yegor/Desktop/code/zeronights/defi_tutorial/src/contracts/ShopContract.sol",
  "compiler": {
    "name": "solc",
    "version": "0.5.16+commit.9c3226ce.Emscripten.clang"
  },
  "schemaVersion": "3.2.3",
  "updatedAt": "2021-06-13T16:12:06.709Z",
  "networkType": "ethereum",
  "devdoc": {
    "methods": {}
  },
  "userdoc": {
    "methods": {}
  }
}